:020000040800F2
:1000000090100020612C00082D0300082F03000829
:1000100033030008370300083B030008000000001A
:100020000000000000000000000000003F03000886
:1000300041030008000000004303000845030008D6
:100040007B2C00087B2C00087B2C00087B2C0008F4
:100050007B2C00087B2C00087B2C00087B2C0008E4
:100060007B2C00087B2C00087B2C00087B2C0008D4
:100070007B2C00087B2C00087B2C00087B2C0008C4
:100080007B2C00087B2C00087B2C00087B2C0008B4
:100090007B2C00087B2C00087B2C00087B2C0008A4
:1000A0007B2C00087B2C00087B2C00087B2C000894
:1000B00047030008770300087B2C00087B2C00080E
:1000C0007B2C00087B2C00087B2C00087B2C000874
:1000D0007B2C00082B0400086F040008B304000800
:1000E0007B2C00087B2C00087B2C00087B2C000854
:1000F0007B2C00087B2C00087B2C00087B2C000844
:100100007B2C00087B2C00087B2C00087B2C000833
:100110007B2C00087B2C00087B2C00087B2C000823
:100120007B2C00087B2C00087B2C00087B2C000813
:10013000DFF80CD002F0A6FD004800475F01000880
:1001400090100020014607E041F2883200E0521E84
:10015000002AFCD14B1E99B20029F5DC704700F053
:10016000C1FD00F0F3FA00F025FE00F0E7FE00F01C
:100170008DF800F016FA00F03EFA642000F0EEFD73
:100180004FF48051094801F0F8F84FF47A7000F00C
:10019000E5FD4FF48051054801F0F1F802210448D3
:1001A00001F0EDF801E000F056FFFCE7000C014023
:1001B00000080140F0B50446104607E0C5B214F847
:1001C000016B6E4033F8166086EA20200E1EA1F106
:1001D0000101F3DCF0BD70B502460B46002041F290
:1001E000210419E0802114E010F4004F05D04FF6EF
:1001F000FF7505EA4000604003E04FF6FF7505EA31
:10020000400015780D4200D060400D4601EBD576D8
:1002100071100029E8D1521C1D00A3F10103E1D1A6
:1002200070BD70B504460D46164B4FF6FF72294659
:100230002046FFF7BFFF70BD70B504460D46294646
:100240002046FFF7C8FF70BD30B502460C460021BE
:1002500003E012F8015B6818C1B22000A4F10105A7
:10026000ECB2F6D1C843401CC1B201F00F00064DFC
:100270002B5C01F0F00109112846415C43EA0120A2
:1002800030BD0000C62C00080000002008B5012188
:10029000082001F07DFA4FF48040ADF800004820BE
:1002A0008DF8030001208DF8020069461C4800F01B
:1002B000B9FF08BD10B500244FF48041184801F083
:1002C00042F860B91748007818B90120154908703C
:1002D00023E015480088401C134908801DE01148A0
:1002E0000078012816D110480088142801DA00246B
:1002F0000DE00D480088142807DB0B480088B0F596
:10030000967F02DA44F0010401E044F01104002079
:1003100004490870002004490880204610BD0000F0
:10032000000C01401000002012000020704700BFA8
:10033000FEE700BFFEE700BFFEE700BFFEE7704735
:1003400070477047704710B50121880702F081F9A6
:1003500080B100F0A8FD68480078002806DD6648F6
:1003600000786649087000206349087001218807F9
:1003700002F080F910BD10B50121614802F069F961
:10038000002851D05F48007A012815D15E480078D6
:10039000002805DD5C480078401E5B4908700BE0D2
:1003A0000020594908700120564948720846408883
:1003B000C8800020087248805448007A012815D16E
:1003C00053480078002805DD51480078401E504908
:1003D00008700BE000204E49087001204B4948721C
:1003E00008464088C8800020087248804948007A42
:1003F000012815D148480078002805DD46480078D6
:10040000401E454908700BE0002043490870012058
:100410004049487208464088C880002008724880D9
:100420000121374802F026F910BD10B520213B48C4
:1004300002F0CEFA20B90821384802F0C9FA50B1CA
:10044000364802F05BFAC4B2204600F038FB2021A7
:10045000324802F0CAFA4021304802F0B9FA28B115
:1004600000F0D2FA40212D4802F0BFFA10BD10B5BD
:1004700020212B4802F0ACFA20B90821284802F0CC
:10048000A7FA50B1264802F039FAC4B2204600F06B
:1004900086FB2021224802F0A8FA4021204802F0E1
:1004A00097FA28B100F0C9FA40211D4802F09DFAE0
:1004B00010BD10B520211B4802F08AFA20B908218E
:1004C000184802F085FA50B1164802F017FAC4B283
:1004D000204600F0ACFB2021124802F086FA4021B1
:1004E000104802F075FA28B100F0C0FA40210D481A
:1004F00002F07BFA10BD000015000020140000205F
:100500000004004058000020180000206204002071
:10051000190000206C0800201A000020003801405B
:10052000004400400048004008B54FF4A06000F0CF
:10053000ABFD1C208DF8000001208DF8010000208B
:100540008DF8020001208DF80300684600F0A1FD3F
:1005500008BD08B54FF4A06000F096FD1D208DF891
:10056000000001208DF801008DF802008DF80300D5
:10057000684600F08EFD08BD08B54FF4A06000F09D
:1005800083FD1E208DF8000001208DF8010002205F
:100590008DF8020001208DF80300684600F079FD17
:1005A00008BD0EB50121084601F0FFF84FF080406C
:1005B00001F056F941F28730ADF804004720ADF85C
:1005C00000000020ADF80600ADF8020069464FF0CB
:1005D000804001F019FA0121880702F037F8012262
:1005E0001146900701F087FD0121880701F068FDA1
:1005F000FFF79AFF0EBD0EB50121022001F0D5F8DC
:10060000244801F02DF940F2CF70ADF804004720E6
:10061000ADF800000020ADF80600ADF80200694614
:100620001C4801F0F1F901211A4802F00FF80122EB
:100630001146184801F05FFD0121164801F040FD08
:10064000FFF787FF0EBD0EB50121042001F0ADF8C4
:10065000114801F005F9C720ADF804004720ADF8B6
:1006600000000020ADF80600ADF8020069460A4817
:1006700001F0CAF90121084801F0E8FF0122114602
:10068000054801F038FD0021034801F019FDFFF78E
:1006900073FF0EBD00040040000800400020FD492B
:1006A000088048808880C88008724872704700209F
:1006B000F949088048808880C8800872487270476D
:1006C0000020F649088048808880C88008724872F7
:1006D000704708B54FF4A06000F0D6FC25208DF8D7
:1006E000000000208DF801008DF8020001208DF837
:1006F0000300684600F0CDFC08BD08B54FF4A060CB
:1007000000F0C2FC26208DF8000000208DF80100CA
:1007100001208DF802008DF80300684600F0B9FC56
:1007200008BD08B54FF4A06000F0AEFC27208DF89E
:10073000000001208DF8010002208DF80200012048
:100740008DF80300684600F0A4FC08BD00B585B034
:10075000012144F2040001F01BF84FF40070ADF8E1
:10076000100018208DF8130003208DF8120004A942
:10077000CB4800F057FD4FF48060ADF81000042026
:100780008DF8130004A9C64800F04CFD4FF49640C4
:1007900000900020ADF80400ADF80600ADF80800A8
:1007A000ADF80C000C20ADF80A006946BD4801F018
:1007B000A8FF4021BB4802F018F9012240F2255160
:1007C000B84802F036F8012240F22661B54802F03E
:1007D00030F80121B34802F020F8FFF77AFFFFF765
:1007E0005DFF05B000BD00B585B00121042000F01B
:1007F000CFFF0121480400F0D8FF0420ADF810001D
:1008000003208DF8120018208DF8130004A9A448C5
:1008100000F008FD0820ADF8100004208DF813004A
:1008200004A99F4800F0FEFC4FF496400090002081
:10083000ADF80400ADF80600ADF80800ADF80C0006
:100840000C20ADF80A006946974801F05AFF0122D2
:1008500040F22551944801F0ECFF012240F226615C
:10086000914801F0E6FF40218F4802F0BEF80121D7
:100870008D4801F0D2FFFFF740FFFFF718FF05B0EA
:1008800000BD00B585B00121082000F081FF0121E5
:10089000880400F08AFF4FF48060ADF81000032058
:1008A0008DF8120018208DF8130004A97F4800F07D
:1008B000B9FC4FF40060ADF8100004208DF813006F
:1008C00004A97A4800F0AEFC4FF496400090002056
:1008D000ADF80400ADF80600ADF80800ADF80C0066
:1008E0000C20ADF80A006946714801F00AFF0122A8
:1008F00040F225516E4801F09CFF012240F2266132
:100900006B4801F096FF4021694802F06EF8012122
:10091000674801F082FFFFF704FFFFF7D1FE05B043
:1009200000BD70B504460D46E1B25E4801F0E2FF3D
:1009300000BF80215B4802F04BF80028F9D0204628
:1009400070BD10B504462146564801F0D3FF00BFE4
:100950008021544802F03CF80028F9D010BD10B5B1
:1009600004460BE014F8011B4E4801F0C3FF00BF22
:1009700080214C4802F02CF80028F9D0207800287B
:10098000F0D110BD10B504462146474801F0B2FF32
:1009900000BF8021444802F01BF80028F9D010BDA8
:1009A00010B504460BE014F8011B3F4801F0A2FF0C
:1009B00000BF80213C4802F00BF80028F9D02078D5
:1009C0000028F0D110BD10B504462146384801F08A
:1009D00091FF00BF8021364801F0FAFF0028F9D0CE
:1009E00010BD10B504460BE014F8011B304801F0AF
:1009F00081FF00BF80212E4801F0EAFF0028F9D0D6
:100A000020780028F0D110BD10B522480088214977
:100A1000898888420CDA1F4802880A30815C2148A4
:100A200001F068FF1B480088401C1A49088003E059
:100A3000002018498880088010BD10B5164800882D
:100A40001549898888420CDA134802880A30815C8B
:100A5000154801F04FFF10480088401C0E490880DF
:100A600003E000200C498880088010BD10B50B48B9
:100A700000880A49898888421CDA084802880A30B6
:100A8000815C0B4801F036FF04480088401C034994
:100A9000088013E058000020620400206C08002049
:100AA000000801400038014000440040000C0140B3
:100AB00000480040002082498880088010BD81499C
:100AC000497A002962D17F49498831B901217D4A9B
:100AD00011720A217C4A11700EE07B4909780029C5
:100AE0000ADC0121774A51720021117211464988AE
:100AF000D1800021518070470A21734A11707149D9
:100B00004A8801F20A2188546E494988491C6D4A75
:100B1000518011464988022922DB11464988891EE5
:100B200002F20A22515C694A117066494988491EDD
:100B3000674A515C674A1170644909780D290FD1E1
:100B40001146097809290BD101215E4A51721146DB
:100B50004988D1800021518011720A215A4A1170AE
:100B600058494988B1F5007F17DB40F2FF11554A1B
:100B700051800121517211464988491CD1800021C0
:100B8000518011720A21504A117006E000214D4A2D
:100B900011720A214C4A1170ADE700BFABE74E4914
:100BA000497A00293AD14C49498831B901214A4A48
:100BB00011720A21494A11700EE04849097800294A
:100BC0000ADC0121444A5172002111721146498800
:100BD000D1800021518070470A21404A11703E495E
:100BE0004A8801F20A2188543B494988491C3A4AFB
:100BF000518011464988B1F5007F16DB40F2FF11A4
:100C000051800121517211464988491CD18000212F
:100C1000518011720A21314A117006E000212E4ADA
:100C200011720A212D4A1170D5E700BFD3E724497C
:100C3000497A00293AD12249498831B90121204A0B
:100C400011720A21264A11700EE0254909780029FF
:100C50000ADC01211A4A5172002111721146498899
:100C6000D1800021518070470A211D4A117014491A
:100C70004A8801F20A21885411494988491C104ABE
:100C8000518011464988B1F5007F16DB40F2FF1113
:100C900051800121517211464988491CD18000219F
:100CA000518011720A210E4A117006E00021044A97
:100CB00011720A210A4A1170D5E700BFD3E700007C
:100CC0006C080020580000201800002016000020AA
:100CD000620200201700002062040020190000209A
:100CE0001A00002010B56FF0040000F01DFA2D4826
:100CF00000682D49B0FBF1F02C49087008460078D7
:100D000000EB4001C1EBC0104FF6FF7101EAC000DB
:100D10002749088010BD0146244A12784A434FF003
:100D2000E0235A6100229A611A46126942F00102D8
:100D30001A6100BF4FF0E022106910F0010F02D0DD
:100D400010F4803FF6D04FF0E022126922F0010249
:100D50004FF0E0231A6100229A6170470146144A5D
:100D600012884A434FF0E0235A6100229A611A46E2
:100D7000126942F001021A6100BF4FF0E0221069CF
:100D800010F0010F02D010F4803FF6D04FF0E022B7
:100D9000126922F001024FF0E0231A6100229A61E9
:100DA000704700004400002000127A001C00002060
:100DB0001E00002008B50121042000F0E9FC0220FB
:100DC000ADF8000010208DF8030001208DF802001E
:100DD00069464E4800F026FA0121082000F0D8FCB0
:100DE0004FF48050ADF8000010208DF80300012072
:100DF0008DF802006946464800F014FA0221434883
:100E000000F0BBFA012043490870002042490870F5
:100E100008BD10B53F48007800281DDD3F48007828
:100E2000401E3E49087008460078002814DC3C4803
:100E3000007838B10221354800F0A1FA0020384985
:100E4000087006E00221314800F097FA0120344989
:100E5000087032203149087010BD10B52E48007856
:100E600000281FDD2F480078401E2E4908700846D4
:100E70000078002816DC2C48007840B14FF48051EF
:100E8000234800F07AFA00202749087007E04FF461
:100E900080511F4800F073FA012023490870322066
:100EA0002049087010BD10B5FFF7B3FFFFF7D5FF5D
:100EB0001E480078012811D11D480088401C1C499B
:100EC000088008460088642808DB02210F4800F0EB
:100ED00054FA002015490870154908801548007813
:100EE000012812D114480088401C13490880084684
:100EF0000088642809DB4FF48051054800F03FFA70
:100F000000200C4908700C49088010BD0008014001
:100F1000000C0140280000202900002020000020B3
:100F20002100002022000020230000202A000020B1
:100F3000240000202B0000202600002008B50121FD
:100F4000042000F025FC4FF40060ADF800001020F4
:100F50008DF8030001208DF802006946444800F036
:100F600061F908BD10B54348007801283DD14248D9
:100F70000079302831D14048407930282DD13E4881
:100F80008079302829D13C48C079302825D13A4889
:100F9000007A302821D13848407A30281DD136488F
:100FA000807A302819D13448C07A302815D1324897
:100FB000007B302811D13048407B30280DD12E489D
:100FC000807B302809D12C48C07B302805D14FF4D4
:100FD00080512A4800F0D3F904E04FF480512748AB
:100FE00000F0CBF9002023490870204610BD70B5F1
:100FF0002348C088162800DA70BD21488079401F38
:10100000C1B22048FFF720F985B21D48C088C01E34
:101010001C49491E0A5C1A48C088001F085C02EB84
:101020000020A84211D1002406E01648401E005DB1
:1010300011490855601CC4B21148C088A042F4DCB4
:1010400001200C490870FFF78DFF00200C49487201
:10105000C88000BFD0E710B50948407A012805D103
:10106000FFF7C5FF00200649C880487210BD000088
:10107000000801402C000020760C0020000C0140EC
:10108000580000206302002031490143314A1160B9
:10109000704770B5002100230F22C4780CB32D4C8B
:1010A000246804F4E064C4F5E064210AC1F1040397
:1010B000CA40447804FA03F18478144021430901BA
:1010C000254C0678A155047804F01F050124AC4096
:1010D00005786D114FF0E02606EB8505C5F8004157
:1010E00009E0047804F01F050124AC401B4D06788C
:1010F000761145F8264070BD194A0A400243154B47
:101100001B1F1A60704739B1124A121D1268024340
:10111000104B1B1D1A6006E00E4A121D1268824316
:101120000C4B1B1D1A607047042808D14FF0E021BA
:10113000096941F004014FF0E022116107E04FF02E
:10114000E021096921F004014FF0E02211617047AC
:101150000000FA050CED00E000E400E080E100E0B2
:1011600080FFFF1F10B50446CA48844208D1012100
:10117000042000F027FB0021042000F023FB46E0C0
:10118000C548844208D10121082000F01BFB002142
:10119000082000F017FB3AE0C048844208D1012142
:1011A000102000F00FFB0021102000F00BFB2EE0C0
:1011B000BB48844208D10121202000F003FB00211C
:1011C000202000F0FFFA22E0B648844208D1012135
:1011D000402000F0F7FA0021402000F0F3FA16E07A
:1011E000B148844208D10121802000F0EBFA0021AF
:1011F000802000F0E7FA0AE0AC48844207D10121E0
:10120000801500F0DFFA0021A01500F0DBFA10BD18
:1012100010B50121084600F0D5FA0021012000F0A8
:10122000D1FA10BD2DE9F04102460025002600202C
:1012300000230024002791F803C00CF00F0591F85B
:1012400003C01CF0100F03D091F802C04CEA050552
:1012500091F800C0BCF1000F31D0146800202BE0E1
:101260004FF0010C0CFA00F3B1F800C00CEA0306D1
:101270009E4220D183004FF00F0C0CFA03F7BC43C1
:1012800005FA03FC4CEA040491F803C0BCF1280FF2
:1012900006D14FF0010C0CFA00FCC2F814C00AE0B1
:1012A00091F803C0BCF1480F05D14FF0010C0CFAC6
:1012B00000FCC2F810C0401C0828D1D31460B1F85B
:1012C00000C0BCF1FF0F34DD546800202EE000F1B7
:1012D000080C4FF0010808FA0CF3B1F800C00CEA52
:1012E00003069E4221D183004FF00F0C0CFA03F746
:1012F000BC4305FA03FC4CEA040491F803C0BCF1BA
:10130000280F05D100F1080C08FA0CF8C2F8148077
:1013100091F803C0BCF1480F07D100F1080C4FF061
:10132000010808FA0CF8C2F81080401C0828CED337
:101330005460BDE8F0814FF6FF7101800221817099
:101340000421C17070470246002093680B4201D00F
:10135000012000E0002070470146886880B2704795
:1013600002460020D3680B4201D0012000E000209B
:1013700070470146C86880B270470161704741619B
:1013800070470AB1016100E041617047C160704778
:101390004FF480320A43826181618261826982698D
:1013A000704702460020424B18684FF68073184081
:1013B00040EA021008433E4B186070473D49C8613F
:1013C0007047F0B50A46002300240021002500F0F4
:1013D0000046B6F1004F02D1354EF16901E0344EBE
:1013E0007168C0F3034583B200F44016B6F5401FA0
:1013F00008D121F070612E4E766826F070662C4F71
:101400007E6012E000F48016B6F5801F06D1032638
:1014100006FA05F4A14341F0706106E0460D36017D
:1014200003FA06F6B14341F0706122B1460D360170
:1014300003FA06F6314300F00046B6F1004F02D140
:101440001B4EF16101E01A4E7160F0BD30B5002213
:101450008B071C0F0F2303FA04F2154B08338C1073
:1014600053F824309343124C08348D1044F825303F
:1014700023468C1053F824308C07240F00FA04F410
:1014800023430B4C08348D1044F8253030BD0A49F5
:101490000860704700080140000C01400010014046
:1014A0000014014000180140001C014000200140D0
:1014B0000000014000002042DC002042DD480068BE
:1014C00040F00100DB49086008464068DA490840FE
:1014D000D849486008460068D8490840D54908609E
:1014E0000846006820F4802008600846406820F420
:1014F000FE0048604FF41F0088607047CD490968BE
:1015000021F48031CB4A11601146096821F4802111
:101510001160B0F5803F03D0B0F5802F0ED106E00A
:10152000C449096841F48031C24A116007E0C149E9
:10153000096841F4A021BF4A116000E000BF00BF6C
:10154000704710B501460022002300204A11012AED
:1015500002D1B84C236806E0022A02D1B54C236AB6
:1015600001E0B44C636A01F01F02012494401C4264
:1015700001D0012000E0002010BD38B5002000900F
:101580000024002500BF3120FFF7DBFF054600984F
:10159000401C00900098B0F5A06F01D0002DF2D053
:1015A0003120FFF7CEFF08B1012400E000242046DF
:1015B00038BD014600209F4A106820F0F80040EA3C
:1015C000C100106070479E490860704702460020C5
:1015D000984B586820F47C1042EA01031843954B5D
:1015E0005860704796490866704701460020914A46
:1015F000506820F003000843506070478D484068F1
:1016000000F00C007047014600208A4A506820F024
:10161000F00008435060704701460020854A50683A
:1016200020F4E06008435060704701460020814A82
:10163000506820F4605040EAC1005060704729B102
:101640007C4A527A02437B4B5A7204E0794A527ABE
:101650008243784B5A7270477A4908607047014656
:101660000020744A506820F440400843506070479E
:101670000021754A11706F4A82F82010012802D0AB
:10168000042808D103E001216F4A117004E005210C
:101690006D4A117000E000BF00BF70476B490860E1
:1016A00070476449096A0143624A11627047674999
:1016B00044390860704730B500210022002400231F
:1016C0005C4D6D6805F00C0121B1042905D0082995
:1016D00023D105E05E4D056022E05D4D05601FE011
:1016E000544D6D6805F47012524D6D6805F48034E8
:1016F000022505EB92421CB9564D554305600BE09F
:101700004C4D6D6815F4003F03D0524D55430560B4
:1017100002E04F4D5543056002E04D4D056000BFAE
:1017200000BF444D6D6805F0F00109094A4D6B5C3E
:101730000568DD4045603F4D6D6805F4E061090ACC
:10174000454D6B5C4568DD4085603A4D6D6805F43C
:101750006051C90A404D6B5C4568DD40C560354D40
:101760006D6805F44041890B3C4D6B5CC568B5FB69
:10177000F3F5056130BD29B12E4A526902432D4B64
:101780005A6104E02B4A526982432A4B5A617047DE
:1017900029B1284A92690243264B9A6104E0254AFE
:1017A00092698243234B9A61704729B1214AD269D9
:1017B0000243204BDA6104E01E4AD26982431D4B8A
:1017C000DA61704729B11B4AD2680243194BDA60CB
:1017D00004E0184AD2688243164BDA60704729B198
:1017E000144A12690243134B1A6104E0114A126948
:1017F0008243104B1A6170471449403908607047A2
:101800000F49C86470470B49C87170470948406A5E
:1018100040F0807007494862704701460020054A41
:1018200092680A4201D0012000E00020704701497F
:1018300088727047001002400000FFF8FFFFF6FEBC
:1018400000004242D800424220100240800442423E
:1018500000127A0000093D002D0000203D0000200C
:1018600010B50446FE48844208D10121C014FFF798
:10187000A9FF0021E014FFF7A5FFC4E0B4F1804FF9
:1018800008D101210846FFF7AAFF00210120FFF738
:10189000A6FFB8E0F348844208D101210220FFF7F7
:1018A0009EFF00210220FFF79AFFACE0EE48844241
:1018B00008D101210420FFF792FF00210420FFF747
:1018C0008EFFA0E0E948844208D101210820FFF7FB
:1018D00086FF00210820FFF782FF94E0E44884425D
:1018E00008D101211020FFF77AFF00211020FFF717
:1018F00076FF88E0DF48844208D101212020FFF7ED
:101900006EFF00212020FFF76AFF7CE0DA48844266
:1019100008D101214014FFF755FF00216014FFF7A3
:1019200051FF70E0D548844209D10121C804FFF776
:1019300049FF00214FF40020FFF744FF63E0D04847
:10194000844209D101210805FFF73CFF00214FF433
:101950008010FFF737FF56E0CA48844209D10121C1
:101960004805FFF72FFF00214FF40010FFF72AFF73
:1019700049E0C548844208D101214020FFF72FFFEC
:1019800000214020FFF72BFF3DE0C048844208D1F2
:1019900001218020FFF723FF00218020FFF71FFF98
:1019A00031E0BB48844208D101218015FFF717FFC1
:1019B0000021A015FFF713FF25E0B648844209D1A6
:1019C00001210804FFF7FEFE00214FF48030FFF7ED
:1019D000F9FE18E0B048844209D101214804FFF71C
:1019E000F1FE00214FF40030FFF7ECFE0BE0AB48B6
:1019F000844208D101218804FFF7E4FE00214FF45E
:101A00008020FFF7DFFE10BD00220288944B984231
:101A10000ED0994B98420BD0B0F1804F08D0914B2B
:101A2000984205D0904B984202D0904B984204D1F6
:101A30004FF68F731A404B881A438D4B984207D04C
:101A40008C4B984204D04FF6FF431A40CB881A4380
:101A500002808B8883850B880385814B98420BD04D
:101A6000854B984208D08B4B984205D08A4B9842C0
:101A700002D08A4B984201D10B7A038601238382DC
:101A8000704770B5002400220023058C4FF6FE76C7
:101A900035400584028C8388048B4FF68F752C406B
:101AA000B51E2C400D882C43751E2A400D892A43F3
:101AB0004D882A436A4DA8420BD06F4DA84208D0EA
:101AC000744DA84205D0744DA84202D0734DA8426F
:101AD00013D14FF6F7752A404D892A434FF6FB750F
:101AE0002A408D882A434FF6FF652B404FF6FF555D
:101AF0002B408D892B43CD892B4383800483CD8854
:101B00008586028470BD70B5002400220023058CF8
:101B10004FF6EF7635400584028C8388048B48F6B7
:101B2000FF752C404FF6FF452C400D884FF6FF7691
:101B300006EA05252C434FF6DF752A400D8906EA93
:101B400005152A434D8806EA05152A43444DA84247
:101B500002D0494DA8421DD14FF67F752A404D89CC
:101B60004FF6FF7606EA05152A434FF6BF752A4061
:101B70008D8806EA05152A434FF6FF352B404FF2B4
:101B8000FF752B408D8906EA85052B43CD8906EA32
:101B900085052B4383800483CD880587028470BD2F
:101BA00070B5002400220023058C4FF6FF663540F7
:101BB0000584028C8388848B4FF68F752C404FF6FA
:101BC000FC752C400D882C434FF6FF552A400D899B
:101BD0004FF6FF7606EA05252A434D8806EA0525D5
:101BE0002A431F4DA84202D0234DA8421DD14FF2D7
:101BF000FF752A404D894FF6FF7606EA05252A43F0
:101C00004FF6FF352A408D8806EA05252A434EF611
:101C1000FF752B404DF6FF752B408D8906EA0515A3
:101C20002B43CD8906EA05152B4383808483CD8819
:101C30008587028470BD70B5002200230024058CC6
:101C40004EF6FF7635400584038C8488828B48F6F7
:101C5000FF752A404FF6FF452A400D8820E000001E
:101C6000002C01400004004000080040000C00402F
:101C7000001000400014004000340140004C0140BE
:101C8000005001400054014000180040001C00407A
:101C90000020004000400140004401400048014055
:101CA0004FF6FF7606EA05252A434DF6FF752B40D1
:101CB0000D8906EA05352B434D8806EA05352B4389
:101CC000FA4DA84202D0FA4DA84208D14BF6FF7552
:101CD0002C408D894FF6FF7606EA85152C438480CB
:101CE0008283CD88A0F84050038470BD828B4FF270
:101CF000FF331A408283828B4FF6FF7303EA01237E
:101D00001A4382837047F0B50C4615460022002125
:101D10000026078C4EF6FF7C07EA0C070784828BAF
:101D2000018C4FF6FF7707EA043640F6FF473A404A
:101D30004FF6FF7707EA05273A434FF6FF7707EAA2
:101D400003373A43D94FB8420ED0D94FB8420BD0DF
:101D5000B0F1804F08D0D74FB84205D0D64FB84227
:101D600002D0D64FB84206D14DF6FF77394046F43F
:101D70008057394305E047F6FF57394044F4805710
:101D8000394382830184F0BD828B4FF6F3731A408E
:101D90008283828B0A4382837047F0B50C461546D6
:101DA000002200210026078C4FF6FF6C07EA0C0783
:101DB0000784828B018C4FF6FF7707EA04264FF6E3
:101DC0000C773A404FF6FF7707EA03172F433A4361
:101DD000B64FB8420ED0B64FB8420BD0B0F1804FDC
:101DE00008D0B44FB84205D0B34FB84202D0B34F79
:101DF000B84206D14FF6FF57394046F48077394351
:101E000005E04FF2FF57394044F48077394382832D
:101E10000184F0BD028B4FF2FF331A400283028B24
:101E20004FF6FF7303EA01231A4302837047F0B5AC
:101E30000C461546002200210026078C4FF6EF7C49
:101E400007EA0C070784028B018C4FF6FF7707EA3D
:101E5000041640F6FF473A404FF6FF7707EA03378C
:101E60003A434FF6FF7707EA05273A438F4FB842C8
:101E70000ED08F4FB8420BD0B0F1804F08D08D4FAD
:101E8000B84205D08C4FB84202D08C4FB84206D130
:101E90004FF6DF77394046F01007394305E04FF63B
:101EA0005F77394044F01007394302830184F0BD65
:101EB000028B4FF6F3731A400283028B0A430283AC
:101EC0007047F0B50C46154600220021068C4FF6EF
:101ED000FE773E400684028B018C4FF60C76324032
:101EE0007E1C06EA03162E433243704EB0420ED0DB
:101EF0006F4EB0420BD0B0F1804F08D06D4EB04263
:101F000005D06D4EB04202D06C4EB04206D14FF6B5
:101F1000FD76314044F00106314305E04FF6F57699
:101F2000314044F00106314302830184F0BD70B5B5
:101F300005460C465D4885420ED05D4885420BD073
:101F4000B5F1804F08D05B48854205D05A4885429C
:101F500002D05A48854200D100E000BF208850B925
:101F60002389A28861882846FFF7ABFFE1882846CD
:101F7000FFF79EFF25E0208804280AD12389A28844
:101F800061882846FFF753FFE1882846FFF742FFA4
:101F900017E0208808280AD12389A288618828466A
:101FA000FFF7FBFEE1882846FFF7EEFE09E02389F4
:101FB000A28861882846FFF7A6FEE1882846FFF739
:101FC00095FE70BD2DE9F04105460C46002601271F
:101FD000608808B9022600E00026A088012801D107
:101FE000022700E001272088A0B92389A288618800
:101FF0002846FFF766FFE1882846FFF759FF238947
:102000003A4631462846FFF712FFE1882846FFF797
:1020100001FF13E02389A28861882846FFF707FFA4
:10202000E1882846FFF7F6FE23893A4631462846DE
:10203000FFF747FFE1882846FFF73AFFBDE8F08148
:102040000A884B881A438B881A43CB881A430B891A
:102050001A434B891A438B891A43A0F844207047CE
:102060004FF6FF71818000210180C18041800172A3
:1020700070470021018041808180C18001814181C0
:102080008181C181704700210180418001218180CF
:102090000021C18001817047002101804180818041
:1020A000C18001814181818170470000002C014085
:1020B000003401400004004000080040000C0040D3
:1020C00021B1028842F00102028004E002884FF64A
:1020D000FE731A400280704731B1B0F8442042F4D8
:1020E0000042A0F8442005E0B0F84420C2F30E02FC
:1020F000A0F8442070471AB183890B43838102E022
:1021000083898B43838170478182704741EA020350
:10211000A0F8483070471AB183890B43838102E0ED
:1021200083898B438381704701894FF6F872114090
:10213000018170470A46002101894FF68F731940CB
:1021400011430181704730B504460D4629462046AB
:10215000FFF7F0FF208940F00700208130BD2DE916
:10216000F04104460D4616461F46602D06D13B46FB
:10217000012231462046FFF75AFE05E03B46012288
:1021800031462046FFF79DFE29462046FFF7D2FF45
:10219000208940F007002081BDE8F08130B50C4671
:1021A00000210189C9B24FF6FF7505EA03251543E1
:1021B00025432943018130BD2DE9F04105460E46F6
:1021C00017469846002443463A4631462846FFF7CC
:1021D000E5FF2C894FF6F870044044F007044FF6F1
:1021E0008F70044044F070042C81BDE8F081F0B59C
:1021F00004460D4616461F463B46324629462046B3
:10220000FFF7CCFF208940F480402081F0BD01859C
:10221000828270470A46002101884FF68F73194069
:10222000114301807047F0B50C4615461E4600214B
:10223000002200230189028B038C4FF6F877394086
:1022400021434FF6FC473A4040F201173A434FF61C
:10225000DD773B404FF6FF7707EA06172F433B43F6
:10226000018102830384F0BD0A460021018B4FF6F1
:102270008F7319401143018370470A460021018B77
:1022800048F6FF7319404FF6FF7303EA0223194320
:10229000018370470A460021818B4FF68F731940E6
:1022A0001143818370470A460021818B48F6FF73F2
:1022B00019404FF6FF7303EA0223194381837047E5
:1022C00021B1028842F08002028004E002884FF6C9
:1022D0007F731A400280704721B1828842F0040265
:1022E000828004E082884FF6FB731A408280704738
:1022F00021B1828842F00802828004E082884FF691
:10230000F7731A408280704721B1828842F001023F
:10231000828004E082884FF6FE731A408280704704
:102320000A460021018B4FF6F773194011430183D0
:1023300070470A460021018B4FF2FF7319404FF698
:10234000FF7303EA02231943018370470A46002101
:10235000818B4FF6F77319401143818370470A460A
:102360000021818B4FF2FF7319404FF6FF7303EA90
:1023700002231943818370470A460021018B4FF6DF
:10238000FB7319401143018370470A460021018BFA
:102390004FF6FF3319404FF6FF7303EA0223194348
:1023A000018370470A460021818B4FF6FB73194069
:1023B0001143818370470A460021818B4FF6FF331A
:1023C00019404FF6FF7303EA0223194381837047D4
:1023D0000A460021018B4FF67F7319401143018398
:1023E00070470A460021018BC1F30E014FF6FF73BF
:1023F00003EA02231943018370470A460021818BB7
:102400004FF67F7319401143818370470A460021BC
:10241000818BC1F30E014FF6FF7303EA02231943C8
:10242000818370470A460021018C4FF6FD731940E5
:102430001143018470470A460021018C4FF6F7735F
:1024400019401143018470470A460021018C4FF660
:10245000DF7319404FF6FF7303EA02131943018437
:1024600070470A460021018C4FF67F7319404FF6E2
:10247000FF7303EA02131943018470470A460021DF
:10248000018C4FF6FF5319404FF6FF7303EA022306
:102490001943018470470A460021018C4FF2FF73F3
:1024A00019404FF6FF7303EA022319430184704772
:1024B0000A460021018C4DF6FF7319404FF6FF7359
:1024C00003EA023319430184704730B50023012425
:1024D0008C40A3B2048C9C430484048C02FA01F562
:1024E000ADB22C43048430BD30B5002304248C40AD
:1024F000A3B2048C9C430484048C02FA01F5ADB2AF
:102500002C43048430BD70B50346002000241846D7
:10251000183001258D40ACB21D8CA5431D8409B136
:10252000082909D100EB6100056825F070050560F8
:102530000568154305600EE00D1FC5F34E052844E0
:10254000056825F4E045056005684FF6FF7606EA64
:1025500002263543056070BD21B1028842F00202B7
:10256000028004E002884FF6FD731A400280704733
:1025700021B1028842F00402028004E002884FF692
:10258000FB731A400280704721B1828842F08002BA
:10259000828004E082884FF67F731A408280704701
:1025A00002884FF6F7731A40028002880A430280BD
:1025B000704782884FF68F731A40828082880A4360
:1025C0008280704702894FF6F8731A4002810289AF
:1025D0000A430281704702894FF67F731A400281D5
:1025E00002890A4302817047818470478185704760
:1025F000818670470187704781877047A0F8401037
:10260000704702884FF6FF431A40028002880A434F
:10261000028070470146888E70470146088F7047D8
:102620000146888F70470146B1F840007047014667
:10263000888C70470146088D704702460020138A37
:102640000B4201D0012000E000207047CA43028203
:10265000704730B50246002000230024158A05EAA1
:102660000103958905EA010413B10CB1012000E0D2
:10267000002030BDCA4302827047000010B50446F6
:10268000FB48844209D101218803FFF79BF8002110
:102690004FF48040FFF796F832E0F648844209D1C3
:1026A00001214804FFF79BF800214FF40030FFF7A9
:1026B00096F825E0F048844209D101218804FFF70B
:1026C0008EF800214FF48020FFF789F818E0EB48DE
:1026D000844209D10121C804FFF781F800214FF499
:1026E0000020FFF77CF80BE0E548844208D1012187
:1026F0000805FFF774F800214FF48010FFF76FF81A
:1027000010BD2DE9F04786B005460E460024A246CE
:1027100000BFA1460027B08900B100BF2F462C8A18
:102720004CF6FF700440F08804432C82AC894EF6CE
:10273000F3100440B0883189084371890843044389
:10274000AC81AC8A4FF6FF400440B0890443AC82B0
:1027500001A8FEF7B0FFC648874202D1DDF810A0FD
:1027600001E0DDF80CA0A88910F4004F08D00AEBB6
:10277000CA0000EB0A1031684900B0FBF1F807E02D
:102780000AEBCA0000EB0A1031688900B0FBF1F8CF
:102790006420B8FBF0F004012009642101FB1089DA
:1027A000A88910F4004F08D0322000EBC900B0FB1C
:1027B000F1F000F00700044308E0322000EB0910BC
:1027C0006421B0FBF1F000F00F0004432C8106B04F
:1027D000BDE8F0874FF41651016000218180C1806F
:1027E00001810C21418100218181704710B5024691
:1027F0000020108A4FF2FF0318400B884C882343B7
:102800008C882343CC8823431843108210BD0021B9
:10281000018041808180C180704721B1828942F46A
:102820000052828104E082894DF6FF731A40828152
:102830007047F0B503460024002600250020A1F5CE
:1028400010676A3F00D100BF1846C1F3421401F07F
:102850001F06012707FA06F5012C01D10C3004E010
:10286000022C01D1103000E014301AB107682F4358
:10287000076002E00768AF430760F0BD1AB1838AC2
:102880000B43838202E0838A8B4383827047028AF0
:102890004FF6F0731A400282028A0A43028270479E
:1028A00082894FF2FF731A40828182890A438281B2
:1028B000704721B1828942F00202828104E082895C
:1028C0004FF6FD731A4082817047028A4FF6DF731C
:1028D0001A400282028A0A430282704721B1028AA8
:1028E00042F48042028204E0028A4BF6FF731A40EF
:1028F00002827047C1F308028280704701468888CF
:10290000C0F308007047818941F00101818170475F
:10291000028BD2B20283028B42EA01220283704709
:10292000028B02F47F420283028B0A4302837047C8
:1029300021B1828A42F02002828204E0828A4FF62C
:10294000DF731A408282704721B1828A42F01002FE
:10295000828204E0828A4FF6EF731A4082827047C7
:1029600021B1828A42F00802828204E0828A4FF614
:10297000F7731A408282704721B1828942F4004283
:10298000828103E08289C2F30E028281704721B105
:10299000828A42F40062828204E0828A4FF2FF73EC
:1029A0001A4082827047828A4FF6FB731A408282F5
:1029B000828A0A438282704721B1828A42F00202EF
:1029C000828204E0828A4FF6FD731A408282704749
:1029D00002460020B1F5007F00D100BF13880B42F2
:1029E00001D0012000E00020704701F40072B2F530
:1029F000007F00D100BFCA430280704770B5024615
:102A00000024002300250020A1F510666A3E00D1B5
:102A100000BFC1F3421501F01F03012606FA03F3BC
:102A2000012D02D19689334006E0022D02D1168A8B
:102A3000334001E0968A33400C12012606FA04F472
:102A40001688344013B10CB1012000E0002070BDA5
:102A500010B500220023A1F510646A3C00D100BF2C
:102A60000A1201249440A3B2DC43048010BD00008C
:102A7000003801400044004000480040004C004045
:102A8000005000400CB50020019000906B48006899
:102A900040F480306949086000BF6848006800F46D
:102AA000003000900198401C0190009818B90198DE
:102AB000B0F5A06FF1D16148006810F4003F02D07A
:102AC0000120009001E0002000900098012842D1F0
:102AD0005B48006840F010005949086008460068EB
:102AE00020F0030008600846006840F0020008601B
:102AF0005248406851494860084640684860084666
:102B0000406840F4806048600846406820F47C10CB
:102B100048600846406840F4E8104860084600688D
:102B200040F08070086000BF4448006810F0007FEB
:102B3000FAD04248406820F0030040494860084607
:102B4000406840F00200486000BF3C48406800F028
:102B50000C000828F9D10CBD10B5FFF793FF10BD8C
:102B600010B53648006840F0010034490860084656
:102B70004068344908403149486008460068324995
:102B800008402E4908600846006820F4802008604C
:102B90000846406820F4FE0048604FF41F0088603B
:102BA000FFF7DAFF4FF000602849086010BD10B54C
:102BB000002100200022214B5B6803F00C0121B1B1
:102BC000042906D0082928D107E0214B214C236095
:102BD00027E01F4B1F4C236023E0184B5B6803F476
:102BE0007010164B5B6803F48032022303EB9040B5
:102BF00022B9194B4343174C23600DE00F4B5B6820
:102C000013F4003F04D0144B4343124C236003E001
:102C10000F4B43430F4C236003E00D4B0D4C2360DF
:102C200000BF00BF054B5B68C3F303130B4CE15CB3
:102C3000084B1B68CB40074C236010BD00100240BE
:102C4000002002400000FFF8FFFFF6FE08ED00E064
:102C500000127A004400002000093D0048000020D6
:102C60000648804706480047FEE7FEE7FEE7FEE726
:102C7000FEE7FEE7FEE7FEE7FEE7FEE7612B000862
:102C800031010008064C074D06E0E06840F0010302
:102C900094E8070098471034AC42F6D3FDF74CFA9D
:102CA000C82E0008E82E000802E008C8121F08C15C
:102CB000002AFAD170477047002001E001C1121FBD
:102CC000002AFBD170470000C1C081C1400101C38F
:102CD000C003800241C201C6C006800741C700058B
:102CE000C1C581C4400401CCC00C800D41CD000F92
:102CF000C1CF81CE400E000AC1CA81CB400B01C9B1
:102D0000C009800841C801D8C018801941D9001BEA
:102D1000C1DB81DA401A001EC1DE81DF401F01DD08
:102D2000C01D801C41DC0014C1D481D5401501D7E1
:102D3000C017801641D601D2C012801341D30011B2
:102D4000C1D181D0401001F0C030803141F1003359
:102D5000C1F381F240320036C1F681F7403701F508
:102D6000C035803441F4003CC1FC81FD403D01FF91
:102D7000C03F803E41FE01FAC03A803B41FB003932
:102D8000C1F981F840380028C1E881E9402901EB08
:102D9000C02B802A41EA01EEC02E802F41EF002D8A
:102DA000C1ED81EC402C01E4C024802541E50027E1
:102DB000C1E781E640260022C1E281E3402301E130
:102DC000C021802041E001A0C060806141A100637A
:102DD000C1A381A240620066C1A681A7406701A588
:102DE000C065806441A4006CC1AC81AD406D01AF91
:102DF000C06F806E41AE01AAC06A806B41AB0069B2
:102E0000C1A981A840680078C1B881B9407901BBE7
:102E1000C07B807A41BA01BEC07E807F41BF007D09
:102E2000C1BD81BC407C01B4C074807541B50077E0
:102E3000C1B781B640760072C1B281B3407301B1AF
:102E4000C071807041B00050C19081914051019398
:102E5000C053805241920196C05680574197005509
:102E6000C19581944054019CC05C805D419D005F90
:102E7000C19F819E405E005AC19A819B405B01992F
:102E8000C059805841980188C04880494189004B09
:102E9000C18B818A404A004EC18E818F404F018D87
:102EA000C04D804C418C0044C184818540450187E0
:102EB000C047804641860182C04280434183004131
:102EC000C181818040400000E82E00080000002001
:102ED00058000000A82C0008402F000858000020CF
:102EE00038100000B82C0008303132333435363712
:102EF00038394142434445460000000000000000CC
:102F0000000000000000000032013201000000005B
:102F100000000000000000000001020304010203A1
:102F200004060708090204060800000000A24A047B
:102F30000000000000000000010203040607080969
:0400000508000131BD
:00000001FF
