:020000040800F2
:10000000F8100020AD4500080105000803050008B0
:10001000070500080B0500080F0500080000000098
:1000200000000000000000000000000013050008B0
:100030001505000800000000170500081905000854
:10004000C7450008C7450008C7450008C745000860
:10005000C7450008C7450008C7450008C745000850
:10006000C7450008C7450008C7450008C745000840
:10007000C7450008C7450008C7450008C745000830
:10008000C7450008C7450008C7450008C745000820
:10009000C7450008C7450008C7450008A711000864
:1000A000C7450008C7450008C7450008C745000800
:1000B0001B050008E1050008C7450008C745000802
:1000C000C7450008C7450008C7450008C7450008E0
:1000D000C74500082F060008C7450008C7450008A7
:1000E0002B120008C7450008C7450008C74500088F
:1000F000C7450008C7450008C7450008C7450008B0
:10010000C7450008C7450008C7450008C74500089F
:10011000C7450008C7450008C7450008C74500088F
:10012000C7450008C7450008C7450008C74500087F
:10013000DFF80CD004F04CFA00480047BB0100087F
:10014000F8100020014607E041F2883200E0521E1C
:10015000002AFCD14B1E99B20029F5DC704710B57E
:1001600000202E49087101208872087000202C4957
:10017000C875087520212B4802F0A7FD10212948D9
:1001800002F0A3FD00202849C870487208708871E9
:1001900023498872487308714870C8710874C8741C
:1001A000224948722248C0882149888000201F497E
:1001B00008721F490873887310BD00F03BF801F006
:1001C00007FC01F0AFF800F09DF801F05DFC01F0D4
:1001D000D9FC01F07FFE02F031FA00F0DEFF00F002
:1001E0006DFB00F096FA00F0BEFA4FF496701049DD
:1001F000C8800A490881FFF7B2FF4FF47A7000F017
:1002000055F809E001F053FC01F09DFD01F0E0FE1E
:1002100002F051FA02F0F5F9F4E70000B20C002008
:100220006C0000200010014088000020D40C002049
:10023000E20C002010B56FF0040002F08DFB2D4899
:1002400000682D49B0FBF1F02C4908700846007891
:1002500000EB4001C1EBC0104FF6FF7101EAC00096
:100260002749088010BD0146244A12784A434FF0BE
:10027000E0235A6100229A611A46126942F0010293
:100280001A6100BF4FF0E022106910F0010F02D098
:1002900010F4803FF6D04FF0E022126922F0010204
:1002A0004FF0E0231A6100229A6170470146144A18
:1002B00012884A434FF0E0235A6100229A611A469D
:1002C000126942F001021A6100BF4FF0E02210698A
:1002D00010F0010F02D010F4803FF6D04FF0E02272
:1002E000126922F001024FF0E0231A6100229A61A4
:1002F000704700005800002000127A00040000201F
:100300000600002008B50121042002F0E7FE0220CB
:10031000ADF8000010208DF8030001208DF80200D8
:100320006946464802F024FC0221444802F0CBFC16
:1003300001204349087008BD10B5414800780028E5
:100340001DDD40480078401E3E4908700846007890
:10035000002814DC3C48007838B10221374802F00C
:10036000B4FC00203849087006E00221334802F04E
:10037000AAFC01203449087032203249087010BDAF
:1003800010B532480078002822DD31480078401E40
:100390002F49087008460078002819DC2D4800789D
:1003A00038B10121254802F090FC0020294908704D
:1003B0000BE00121214802F086FC24480078401E11
:1003C0002249087001202349087032202049087012
:1003D00010BD10B5FFF7B0FFFFF7D2FF1E48007841
:1003E000012812D11D480088401C1C49088008467D
:1003F0000088B0F57A6F08DB0221104802F063FC38
:100400000020154908701549088015480078012812
:1004100012D114480088401C124908800846008800
:10042000B0F57A6F08DB0121044802F04CFC002093
:100430000B4908700B49088010BD000000080140FE
:1004400010000020080000200900002011000020FA
:100450000A0000200B000020120000200C000020E9
:10046000130000200E000020F0B50446104607E0FF
:10047000C5B214F8016B6E4033F8166086EA20208E
:100480000E1EA1F10101F3DCF0BD70B502460B4672
:10049000002041F2210419E0802114E010F4004F03
:1004A00005D04FF6FF7505EA4000604003E04FF6C7
:1004B000FF7505EA400015780D4200D060400D46FA
:1004C00001EBD57671100029E8D1521C1D00A3F173
:1004D0000103E1D170BD70B504460D46074B4FF6E0
:1004E000FF7229462046FFF7BFFF70BD70B5044676
:1004F0000D4629462046FFF7C8FF70BD124600088A
:10050000704700BFFEE700BFFEE700BFFEE700BF89
:10051000FEE7704770477047704710B501218807A4
:1005200003F03DFD00285AD0FFF753FF01F0D9F842
:1005300001F054FA02F031F94E48407D002805DD03
:100540004C48407D401E4B49487506E020214A48F2
:1005500002F0BBFB0020474948754848006828B1B5
:1005600046480068401E4549086003E010214248A3
:1005700002F0ABFB4248C088002804DD4048C08838
:10058000401E3F49C8803B48008B002805DD3948A4
:10059000008B401E3749088302E0002039498871EA
:1005A00037488089002804DD35488089401E344959
:1005B00088813348C089002804DD3148C089401E45
:1005C0002F49C8812B48807E002804DD2948807E81
:1005D000401E284988760121880703F0F1FC10BDF0
:1005E00010B50121284803F0DAFCF8B12748007A59
:1005F000012815D126480078002805DD2448007818
:10060000401E234908700BE000202149087001209A
:100610001E49487208464088C880002008724880F9
:1006200000F077FE0121184803F0CAFC10BD10B598
:100630002021184803F072FE20B90821154803F064
:100640006DFE50B1134803F0FFFDC4B2204600F028
:10065000EEFA20210F4803F06EFE40210D4803F012
:100660005DFE28B100F088FA40210A4803F063FEDD
:1006700010BD00006C000020001001403000002080
:10068000B20C0020880000200004004094000020EC
:10069000160000200038014008B54FF4A06002F0B9
:1006A0000BF91C208DF8000001208DF801000020BE
:1006B0008DF8020001208DF80300684602F001F970
:1006C00008BD08B54FF4A06002F0F6F81D208DF8C3
:1006D000000001208DF801008DF802008DF8030064
:1006E000684602F0EEF808BD08B54FF4A06002F0CD
:1006F000E3F81E208DF8000001208DF80100022093
:100700008DF8020001208DF80300684602F0D9F848
:1007100008BD0EB50121084602F0EDFC4FF0804007
:1007200002F044FD41F28730ADF804004720ADF8F7
:1007300000000020ADF80600ADF8020069464FF059
:10074000804002F007FE0121880703F025FC01220A
:100750001146900703F075F90121880703F056F957
:10076000FFF79AFF0EBD0EB50121022002F0C3FC77
:10077000244802F01BFD40F2CF70ADF80400472082
:10078000ADF800000020ADF80600ADF802006946A3
:100790001C4802F0DFFD01211A4803F0FDFB012295
:1007A0001146184803F04DF90121164803F02EF9BF
:1007B000FFF787FF0EBD0EB50121042002F09BFC60
:1007C000114802F0F3FCC720ADF804004720ADF853
:1007D00000000020ADF80600ADF8020069460A48A6
:1007E00002F0B8FD0121084803F0D6FB01221146B2
:1007F000054803F026F90021034803F007F9FFF745
:1008000073FF0EBD00040040000800400020FD49B9
:10081000088048808880C88008724872704700202D
:10082000F949088048808880C880087248727047FB
:100830000020F649088048808880C8800872487285
:10084000704708B54FF4A06002F036F825208DF807
:10085000000000208DF801008DF8020001208DF8C5
:100860000300684602F02DF808BD08B54FF4A060FB
:1008700002F022F826208DF8000000208DF80100FB
:1008800001208DF802008DF80300684602F019F887
:1008900008BD08B54FF4A06002F00EF827208DF8CF
:1008A000000001208DF8010002208DF802000120D7
:1008B0008DF80300684602F004F808BD00B585B065
:1008C000012144F2040002F009FC4FF40070ADF87D
:1008D000100018208DF8130003208DF8120004A9D1
:1008E000CB4802F045F94FF48060ADF810000420C9
:1008F0008DF8130004A9C64802F03AF94FF4964067
:1009000000900020ADF80400ADF80600ADF8080036
:10091000ADF80C000C20ADF80A006946BD4803F0A4
:1009200096FB4021BB4803F006FD012240F2255111
:10093000B84803F024FC012240F22661B54803F0D8
:100940001EFC0121B34803F00EFCFFF77AFFFFF70E
:100950005DFF05B000BD00B585B00121042002F0A7
:10096000BDFB0121480402F0C6FB0420ADF81000D5
:1009700003208DF8120018208DF8130004A9A44854
:1009800002F0F6F80820ADF8100004208DF81300EE
:1009900004A99F4802F0ECF84FF496400090002024
:1009A000ADF80400ADF80600ADF80800ADF80C0095
:1009B0000C20ADF80A006946974803F048FB012275
:1009C00040F22551944803F0DAFB012240F22661FF
:1009D000914803F0D4FB40218F4803F0ACFC012187
:1009E0008D4803F0C0FBFFF740FFFFF718FF05B08D
:1009F00000BD00B585B00121082002F06FFB012188
:100A0000880402F078FB4FF48060ADF810000320FA
:100A10008DF8120018208DF8130004A97F4802F009
:100A2000A7F84FF40060ADF8100004208DF8130013
:100A300004A97A4802F09CF84FF4964000900020F8
:100A4000ADF80400ADF80600ADF80800ADF80C00F4
:100A50000C20ADF80A006946714803F0F8FA01224B
:100A600040F225516E4803F08AFB012240F22661D4
:100A70006B4803F084FB4021694803F05CFC0121D2
:100A8000674803F070FBFFF704FFFFF7D1FE05B0E6
:100A900000BD70B504460D46E1B25E4803F0D0FBE0
:100AA00000BF80215B4803F039FC0028F9D02046C4
:100AB00070BD10B504462146564803F0C1FB00BF87
:100AC0008021544803F02AFC0028F9D010BD10B54D
:100AD00004460BE014F8011B4E4803F0B1FB00BFC5
:100AE00080214C4803F01AFC0028F9D02078002817
:100AF000F0D110BD10B504462146474803F0A0FBD5
:100B000000BF8021444803F009FC0028F9D010BD43
:100B100010B504460BE014F8011B3F4803F090FBAE
:100B200000BF80213C4803F0F9FB0028F9D0207871
:100B30000028F0D110BD10B504462146384803F016
:100B40007FFB00BF8021364803F0E8FB0028F9D086
:100B500010BD10B504460BE014F8011B304803F03B
:100B60006FFB00BF80212E4803F0D8FB0028F9D08E
:100B700020780028F0D110BD10B522480088214906
:100B8000898888420CDA1F4802880A30815C214833
:100B900003F056FB1B480088401C1A49088003E0FC
:100BA000002018498880088010BD10B516480088BC
:100BB0001549898888420CDA134802880A30815C1A
:100BC000154803F03DFB10480088401C0E49088082
:100BD00003E000200C498880088010BD10B50B4848
:100BE00000880A49898888421CDA084802880A3045
:100BF000815C0B4803F024FB04480088401C034937
:100C0000088013E0940000209E040020A808002023
:100C1000000801400038014000440040000C014041
:100C200000480040002082498880088010BD81492A
:100C3000497A002962D17F49498831B901217D4A29
:100C400011720A217C4A11700EE07B490978002953
:100C50000ADC0121774A517200211172114649883C
:100C6000D1800021518070470A21734A1170714967
:100C70004A8801F20A2188546E494988491C6D4A04
:100C8000518011464988022922DB11464988891E74
:100C900002F20A22515C694A117066494988491E6C
:100CA000674A515C674A1170644909780D290FD170
:100CB000114609780A290BD101215E4A5172114669
:100CC0004988D1800021518011720A215A4A11703D
:100CD00058494988B1F5007F17DB40F2FF11554AAA
:100CE00051800121517211464988491CD18000214F
:100CF000518011720A21504A117006E000214D4ABC
:100D000011720A214C4A1170ADE700BFABE74E49A2
:100D1000497A00293AD14C49498831B901214A4AD6
:100D200011720A21494A11700EE0484909780029D8
:100D30000ADC0121444A517200211172114649888E
:100D4000D1800021518070470A21404A11703E49EC
:100D50004A8801F20A2188543B494988491C3A4A89
:100D6000518011464988B1F5007F16DB40F2FF1132
:100D700051800121517211464988491CD1800021BE
:100D8000518011720A21314A117006E000212E4A69
:100D900011720A212D4A1170D5E700BFD3E724490B
:100DA000497A00293AD12249498831B90121204A9A
:100DB00011720A21264A11700EE02549097800298E
:100DC0000ADC01211A4A5172002111721146498828
:100DD000D1800021518070470A211D4A11701449A9
:100DE0004A8801F20A21885411494988491C104A4D
:100DF000518011464988B1F5007F16DB40F2FF11A2
:100E000051800121517211464988491CD18000212D
:100E1000518011720A210E4A117006E00021044A25
:100E200011720A210A4A1170D5E700BFD3E700000A
:100E3000A8080020940000201600002014000020C4
:100E40009E020020150000209E04002017000020B4
:100E5000180000201FB50121084602F03FF90121CA
:100E6000102002F03BF94FF47070ADF800004820FC
:100E70008DF8030001208DF802006946FE4801F05C
:100E800077FE0621022001F087FF0721022001F0F2
:100E900083FF0821022001F07FFF0921022001F0D9
:100EA0007BFF4FF47070029000208DF80C000C2036
:100EB0008DF80D0001208DF80E0002A801F078FDDC
:100EC00017208DF8040002208DF805008DF806002B
:100ED00001208DF8070001A801F0F3FC1FBD1FB52C
:100EE0000121084602F0FAF80121082002F0F6F884
:100EF0004FF47C40ADF8000048208DF8030001203D
:100F00008DF802006946DD4801F032FE0A21012019
:100F100001F042FF0B21012001F03EFF0C210120D6
:100F200001F03AFF0D21012001F036FF0E210120D2
:100F300001F032FF0F21012001F02EFF4FF47C4021
:100F4000029000208DF80C000C208DF80D0001207F
:100F50008DF80E0002A801F02BFD28208DF804006A
:100F600002208DF805008DF8060001208DF807009D
:100F700001A801F0A6FC1FBD10B5C148807A012868
:100F800014D1BF48C07A401CC1B2BD48C172C07AFA
:100F900004280BDB4021B84801F07BFE10B901208A
:100FA000B74948720021B6488172C172B448C0790D
:100FB00001281FD1B248007A401CC1B2B04801726A
:100FC000007A142816DB8021AB4801F062FE68B974
:100FD0000120AB4988714FF41670AA490883AA48CA
:100FE000C08818B9A8480089A749C8800021A4482A
:100FF000C1710172A2480079012815D1A048407939
:10100000401CC1B29E484171407904280CDB4FF46A
:101010008071994801F03DFE10B901209849C870CF
:10102000002197480171417195484078012815D1F8
:1010300093488078401C924988700846807804283C
:101040000CDB4FF400718C4801F023FE10B9012035
:101050008B49087000208A494870887010BD10B50F
:101060008848807B012815D18648C07B401CC1B2CE
:101070008448C173C07B04280CDB4FF480617F4837
:1010800001F007FE10B901207E49487300217D4818
:101090008173C1737B48007A012815D17948407A61
:1010A000401CC1B277484172407A04280CDB4FF4EF
:1010B0000061724801F0EDFD10B901207149C8715D
:1010C00000217048017241726E48C07A012815D122
:1010D0006C48007B401CC1B26A480173007B042845
:1010E0000CDB4FF48051654801F0D3FD10B90120AD
:1010F0006449887200216348C17201736148807835
:10110000012815D15F48C078401CC1B25D48C1704C
:10111000C07804280CDB4FF40051584801F0B9FDA9
:1011200010B9012057494870002156488170C1709C
:1011300054484079012815D152488079401CC1B2E9
:1011400050488171807904280CDB4FF480414B4872
:1011500001F09FFD10B901204A490871002149485A
:10116000417181714748407C012815D14548807CF8
:10117000401CC1B243488174807C04280CDB4FF4CE
:1011800000413E4801F085FD10B901203D49087439
:1011900000213C484174817410BD10B5FFF75AFE20
:1011A000FFF79DFE10BD10B5402001F067FC50B167
:1011B0003348807A20B90121314881720021C172FF
:1011C000402001F06CFC802001F058FC50B12C480C
:1011D000C07920B901212A48C17100210172802003
:1011E00001F05DFC4FF4807001F048FC58B12448D8
:1011F000007920B9012122480171002141714FF489
:10120000807001F04CFC4FF4007001F037FC58B1D5
:101210001B48407820B90120194948700020887087
:101220004FF4007001F03BFC10BD10B54FF480602E
:1012300001F024FC58B11348807B20B901211148EA
:1012400081730021C1734FF4806001F028FC4FF4DA
:10125000006001F013FC58B10A48007A20B901215E
:1012600008480172002141724FF4006001F017FC40
:101270004FF480500AE0000000100140000C0140D3
:10128000880000206C000020B20C002001F0F6FB6A
:1012900058B12348C07A20B901212148C1720021E8
:1012A00001734FF4805001F0FAFB4FF4005001F04D
:1012B000E5FB58B11A48807820B90121184881709F
:1012C0000021C1704FF4005001F0E9FB4FF4804061
:1012D00001F0D4FB58B11248407920B901211048DF
:1012E0004171002181714FF4804001F0D8FB4FF42F
:1012F000004001F0C3FB58B10948407C20B90121EE
:1013000007484174002181744FF4004001F0C7FB8D
:1013100010BD10B5FFF730FEFFF7A1FE10BD0000B5
:101320006C00002008B50121202001F0D7FE01212A
:10133000082001F0D3FE0121102001F0CFFE402053
:10134000ADF8000010208DF8030001208DF8020098
:101350006946FD4801F00CFC8020ADF800006946AC
:10136000F94801F005FC2020ADF8000048208DF878
:10137000030001208DF802006946F34801F0F8FBF4
:101380000020F2490870F2490870F2490860F249F9
:10139000C1F89C01F149087008BD48B900BF00219F
:1013A000EC4A1160EC4AC2F89811EA4A116063E015
:1013B00001280BD100BF0121E64A11604FF0000166
:1013C000E54AC2F89811E34A116055E002280DD1B0
:1013D00000BF0021DF4A11604FF00101DE4AC2F870
:1013E00098114FF00001DB4A116045E003280BD152
:1013F00000BF0121D74A1160D74AC2F898114FF0B7
:101400000001D44A116037E004280BD100BF00214D
:10141000D04A1160D04AC2F898114FF00101CD4A6C
:10142000116029E005280DD100BF0121C94A1160D2
:101430004FF00001C84AC2F898114FF00101C54AA7
:10144000116019E006280BD100BF0021C14A1160CC
:101450004FF00101C04AC2F89811BE4A11600BE07A
:10146000072809D100BF0121BA4A1160BA4AC2F85F
:101470009811B84A116000BF704710B50446082C97
:1014800071D2DFE804F0040A1B2C3D4E5F71204648
:10149000FFF783FF601CC4B27FE02046FFF77DFFAB
:1014A000AF480088401CAE490880084600880128E3
:1014B00003DB601CC4B2002008806EE02046FFF70A
:1014C0006CFFA7480088401CA54908800846008892
:1014D000012803DB601CC4B2002008805DE02046C8
:1014E000FFF75BFF9E480088401C9D490880084626
:1014F0000088012803DB601CC4B2002008804CE097
:101500002046FFF74AFF96480088401C944908800F
:1015100008460088012803DB601CC4B20020088054
:101520003BE02046FFF739FF8D480088401C8C497E
:10153000088008460088042803DB601CC4B2002031
:1015400008802AE02046FFF728FF85480088401CD5
:101550008349088008460088012803DB601CC4B268
:101560000020088019E014E0611EC8B2FFF715FFE3
:101570007B480088401C7A4908800846008801287A
:1015800006DB601CC4B2002008800120704908708E
:1015900003E000207249088000BF00BF204610BD54
:1015A00010B50446092C7DD2DFE804F09105112323
:1015B0003547596B7F00611EC8B2FFF7EEFE601E13
:1015C000C4B20020674908806149087086E0611E46
:1015D000C8B2FFF7E2FE63480088401C61490880FA
:1015E00008460088012803DB601EC4B20020088082
:1015F00074E0611EC8B2FFF7D0FE5A480088401C54
:101600005849088008460088012803DB601EC4B2E0
:101610000020088062E0611EC8B2FFF7BEFE51489C
:101620000088401C4F49088008460088022803DBD8
:10163000601EC4B20020088050E0611EC8B2FFF7EF
:10164000ACFE48480088401C46490880084600888F
:10165000022803DB601EC4B2002008803EE0611E49
:10166000C8B2FFF79AFE3F480088401C3D490880F9
:1016700008460088022803DB601EC4B200200880F0
:101680002CE0611EC8B2FFF788FE36480088401C77
:101690003449088008460088022805DB601EC4B271
:1016A000002000E013E0088018E0A11EC8B2FFF798
:1016B00074FE2C480088401C2A490880084600888F
:1016C000022803DB601EC4B20020088006E0002070
:1016D000FFF763FE00202349088000BF00BF2046BB
:1016E00010BD10B52048007830B1012809D002287B
:1016F00018D004284BD13BE04FF47A701A49488047
:1017000046E01348007830B910480078FFF7B5FE7E
:101710000E49087005E002201349087000201349A3
:10172000088035E00A48007801280CD10F4800886D
:10173000401C0E4908800C4840880988884202DC19
:1017400000200A49088023E0000C0140200000200E
:1017500021000020988121420080214222000020A7
:101760001A0000201C000020000000201E000020A5
:1017700008480078012806D107480078FFF710FFD5
:101780000549087002E000200449087000E000BF2D
:1017900000BF10BD2100002020000020000000201C
:1017A00008B50121042001F099FC2020ADF80000CB
:1017B00048208DF8030001208DF802006946A748F3
:1017C00001F0D6F90121042001F088FC4020ADF899
:1017D000000048208DF8030001208DF802006946C2
:1017E0009E4801F0C5F908BD08B50121042001F0AB
:1017F00075FC0820ADF8000010208DF803000120D2
:101800008DF802006946954801F0B2F901210420E3
:1018100001F064FC1020ADF800008DF803000120F9
:101820008DF8020069468D4801F0A2F908BD10B597
:1018300000244021894801F02CFAF0B9884800784A
:1018400018B901208649087034E0854800780128DD
:1018500030D184480088401C8249088008460088AE
:10186000B0F5967F26DD44F0110402207C49087013
:1018700000207C490880204610BD79480078012866
:1018800015DB784800880A2801DA00240AE0754848
:1018900000880A2806DB73480088B0F5967F01DAD5
:1018A00044F0010400206E4908702046E4E700205F
:1018B0006C4908802021694801F0EBF9D0B96A48E9
:1018C000007818B90120684908702DE06748008841
:1018D000401C6649088008460088B0F5967F23DDE5
:1018E00044F0120402206049087000205F4908801B
:1018F0002046C1E75C480078012812DB5B4800887D
:101900000A2800DA0AE0594800880A2806DB574806
:101910000088B0F5967F01DA44F0020400205249B5
:1019200008700020514908802046A5E710B55048AE
:101930000078012808D11021484801F0C4F9082195
:10194000464801F0C2F942E04948007802280ED129
:101950000821424801F0B7F91021404801F0B5F9DB
:101960004448407A00F0EF00424948722FE0404876
:101970000078032823D11021384801F0A6F93E4809
:101980000078002805DD3C480078401E3A49087080
:101990001DE06420384908703848007838B90821BB
:1019A0002E4801F090F90120344908700FE0082119
:1019B0002A4801F08AF900203049087007E0082120
:1019C000264801F082F91021244801F07EF910BD6B
:1019D00010B5FFF7E5FEFFF707FF10BD10B528486B
:1019E000007818B9FFF723FF2549087024480078CC
:1019F00088B32348007810F0010F05D12048007803
:101A000000F01100112814D119480078032802D1E0
:101A1000174908701CE04FF480711A4801F039F939
:101A200018B901201249087012E00320104908700B
:101A30000EE01348007800F00200022805D010489C
:101A4000007800F01200122802D102200849087024
:101A500000200B490870FFF769FF10BD0008014026
:101A60002500002026000020280000202A00002059
:101A700024000020D40C00202C0000202D00002089
:101A80002E0000200010014008B50121042001F0C3
:101A900025FB8020ADF8000010208DF80300012008
:101AA0008DF802006946314801F062F808BD10B5B2
:101AB0002F480078012807D180212C4801F003F934
:101AC00001202C49087050E029480078022818D1DC
:101AD0008021264801F0F9F84FF40061264801F012
:101AE000F4F84FF48061244801F0EFF84FF480518E
:101AF000214801F0EAF804201E490870FEF72FFB88
:101B000033E01B48007803281BD100201B49C8750F
:101B100008752021184801F0D8F81021164801F066
:101B2000D4F80020164908710420124908700102F7
:101B3000114801F0CAF84FF480510F4801F0C5F880
:101B400013E08021094801F0BEF80420094908701B
:101B5000FEF705FB4FF48071074801F09AF820B9B1
:101B60004FF40061044801F0B0F810BD00080140D6
:101B70002400002000000020001001406C00002024
:101B8000B20C002008B50121082001F0A7FA4FF49B
:101B90000050ADF8000048208DF8030001208DF8BA
:101BA00002006946C24800F0E3FF0121082001F06D
:101BB00095FA4FF48040ADF8000048208DF80300FE
:101BC00001208DF802006946B94800F0D1FF0121DB
:101BD000082001F083FA4FF40060ADF800004820BF
:101BE0008DF8030001208DF802006946B04800F02E
:101BF000BFFF0121082001F071FA4FF40040ADF859
:101C0000000048208DF8030001208DF8020069468D
:101C1000A74800F0ADFF0121082001F05FFA4FF462
:101C20008050ADF8000048208DF8030001208DF8A9
:101C3000020069469E4800F09BFF0121082001F048
:101C40004DFA4FF48060ADF8000048208DF8030095
:101C500001208DF802006946954800F089FF0121B6
:101C6000102001F03BFA2020ADF8000010208DF884
:101C7000030001208DF8020069468E4800F078FFCD
:101C80000121102001F02AFA1020ADF800008DF893
:101C9000030001208DF802006946864800F068FFC5
:101CA0001021844801F011F808BD8348407848B9F4
:101CB0008148007C30B98048807A18B901207E497B
:101CC000C87402E000207C49C874704710B5FFF763
:101CD000ECFF7A480078012811D17748C07C0128B0
:101CE00001D1002409E00320744908707448407A47
:101CF00040F01000724948720124204610BD6F4820
:101D0000007802280ED120216A4800F0DEFF102161
:101D1000684800F0DAFF002067494870087488724C
:101D2000C8710DE02021634800F0CFFF1021614809
:101D300000F0CBFF00206049487008748872C871B9
:101D400001242046DAE710B5FFF7C0FF012803D1D0
:101D500000205949087503E05748007D5649087529
:101D60005548007D30B101280FD0022847D0032804
:101D70007ED18EE051480078012805D1FFF7A6FFFB
:101D800010B901204C4908758FE04B48008B10B901
:101D900000204C4988714C48807A01282ED149484E
:101DA000807901282AD10102424800F072FF28BB45
:101DB000022041490875062048754FF480613D486E
:101DC00000F081FF4FF480513A4800F07CFF202161
:101DD000384800F078FF1021364800F074FF0020EA
:101DE0003949887264203449887680003749086010
:101DF0003348407A00F0F7003149487255E02E48E8
:101E0000007901280AD103202B4908750120C875E3
:101E100000202C4988712849087139E02648807EC5
:101E200038BB4FF48041224800F033FF01282FD106
:101E30000320214908750120C87581021D4800F062
:101E400044FF4FF480511B4800F03FFF4FF4806186
:101E5000184800F03AFF00201A49887116490871A5
:101E60001B480078401C1A4908700846007801E0B9
:101E70001AE00DE003280BDD032010490870002054
:101E8000134908700E48407A40F008000C49487227
:101E90000BE00A480078012802D10749087502E0E2
:101EA00000200549087500E000BF00BF10BD00001C
:101EB000000C0140001001406C00002024000020B4
:101EC000D40C002088000020B20C0020300000203C
:101ED0003400002008B50121102001F0FFF84FF474
:101EE0008070ADF8000048208DF8030001208DF8C7
:101EF00002006946834800F03BFE0121102001F0FA
:101F0000EDF84FF40070ADF8000048208DF80300A4
:101F100001208DF8020069467A4800F029FE01216F
:101F2000102001F0DBF88020ADF8000048208DF88B
:101F3000030001208DF802006946724800F018FE87
:101F40000121102001F0CAF84020ADF8000048201F
:101F50008DF8030001208DF802006946694800F001
:101F600007FE0121102001F0B9F84FF40060ADF830
:101F7000000010208DF8030001208DF80200694652
:101F8000604800F0F5FD0121102001F0A7F84FF4A2
:101F90008060ADF8000010208DF8030001208DF85E
:101FA00002006946574800F0E3FD0121102001F0CE
:101FB00095F84FF48050ADF8000010208DF8030024
:101FC00001208DF8020069464E4800F0D1FD08BDA1
:101FD00010B54D480079052878D2DFE800F0030AF3
:101FE000295B850049480078012801D146490871DC
:101FF00086E04748C07D012819D143480078012870
:1020000015D14148C08890B902203F49087181022A
:102010003C4800F058FE00203D49C875C8203A49A8
:1020200088813C48407A00F0FB003A49487267E0FA
:1020300039480078012820D100203749C8704FF472
:102040000061304800F041FE10212E4800F03DFEB6
:1020500003202D49087100202F4908702A49087073
:102060002D4988714FF4C8702749C8812948407AA2
:1020700000F0EF00274948720BE02348808940B9FF
:102080000320224908702348407A40F00400214987
:10209000487235E02048C078012818D100201E4938
:1020A00008700420184908710120887200201A491C
:1020B000C8700120144908700103124800F005FEA1
:1020C0004FF480610F4800F000FE0CE017E00E486E
:1020D000C08940B903200D4908700E48407A40F08D
:1020E00010000C4948720BE008480078012802D122
:1020F0000549087102E000200349087100E000BFB3
:1021000000BF10BD00100140B20C002024000020D0
:102110006C000020D40C00208800002070B5FE4820
:10212000C088122802DA0225284670BDFA48C08805
:10213000011FFA48FEF7DAF90446F748C088C01EC6
:10214000F6490A5CF448C088001F085C02EB0020D6
:10215000A0427CD1002605E0F048805DF04988551A
:10216000701CC6B2122EF7DBED48007920B10128B1
:1021700003D002280DD106E00CE0E9480079E949D6
:102180000873887306E0E6480079E64908738873A7
:1021900000E000BF00BFE248807920B1012803D0F1
:1021A00002281AD115E019E0DF480078032802D18F
:1021B000DD4908700CE04FF48071DC4800F069FDE7
:1021C00018B90120D849087002E00320D6490870E8
:1021D00004E00220D449087000E000BF00BFD248EC
:1021E0000078022816D1CE48C07920B1012803D04A
:1021F00002280DD106E00CE04FF48051CC4800F0ED
:1022000062FD06E04FF48051C94800F05EFD00E039
:1022100000BF00BFC248007A20B1012803D00228C5
:102220001FD11DE01EE0BE48817A407A01EB0020FC
:10223000801C052190FBF1F0BE4908810846008909
:10224000B0F5167F04DB4FF41670088107E06FE0ED
:10225000B8480089C82802DCC820B649088101E0D6
:1022600000E000BF00BFAE48C07A10B101281ED107
:1022700000E01DE0AA48417B007B01EB0020801CB0
:10228000052190FBF1F0A749C8800846C088B0F549
:10229000C87F03DB4FF49670C88007E0A148C08870
:1022A000C82803DC4FF496709E49C88000E000BF48
:1022B00000BF9B48407920B1012803D0022833D1C8
:1022C00031E032E001209C4908719648807B4871DA
:1022D0009548007888719948C07C012801D1C8715F
:1022E00002E002209449C8718E48007A012803D088
:1022F0009348407A01280AD18A48007B012802D1FC
:102300008D4908720EE002208B4908720AE0854868
:10231000007B012803DB03208749087202E00020CC
:102320008549087201E000E000BF00BF002500E021
:10233000012500207849888001217748828880889B
:10234000401C754B988003F10A00815458210A38CB
:1023500082888088401C988003F10A008154002103
:102360000A3882888088401C988003F10A008154D2
:1023700006210A3882888088401C988003F10A0070
:102380008154002D7ED16648407901283BD101213E
:10239000184682888088401C988003F10A00815486
:1023A0006048817B184682888088401C988003F1B1
:1023B0000A00815460488179184682888088401CD0
:1023C000988003F10A0081545B48C17918468288DD
:1023D0008088401C988003F10A0081545648017A95
:1023E000184682888088401C988003F10A00815436
:1023F0005148427A184681888088401C988003F1B1
:102400000A00425434E00121434882888088401CFD
:10241000414B988003F10A008154414801791846E4
:1024200082888088401C988003F10A008154002132
:102430000A3882888088401C988003F10A00815401
:102440000A3882888088401C988003F10A008154F1
:102450000A3882888088401C988003F10A008154E1
:102460000A3882888088401C988003F10A008154D1
:10247000294881880A30FEF739F80446210A26489F
:10248000828800E00FE08088401C234B988003F195
:102490000A0081540A3882888088401C988003F1A1
:1024A0000A00845463E0012D61D102211A48828818
:1024B0008088401C184B988003F10A008154002149
:1024C0000A3882888088401C988003F10A00815471
:1024D0000A3882888088401C988003F10A00815461
:1024E0000A3882888088401C988003F10A00815451
:1024F0000A3882888088401C988003F10A00815441
:102500000A3882888088401C988003F10A00815430
:102510000A3881880A3015E0940000209E020020CD
:10252000C20C0020E20C002024000020001001401A
:1025300000080140B20C0020D40C00206C000020E8
:1025400088000020FDF7D2FF0446210A3748828820
:102550008088401C354B988003F10A0081540A386A
:1025600082888088401C988003F10A0084540D21E1
:102570002E4882888088401C2C4B988003F10A00EA
:1025800081540A210A3882888088401C988003F18F
:102590000A0081542846C8E510B52548007810B1D6
:1025A000012827D125E0FFF7B9FD04467CB90020BA
:1025B0001E490880084602880088401C0B46188087
:1025C00001F10A00815C1B4801F03AFE10E0012C89
:1025D0000ED1002015490880084602880088401C5A
:1025E0000B46188001F10A00815C124801F028FEB8
:1025F00004E003E000200E49087000BF00BF204641
:1026000010BD10B50948407A01280BD1FFF7C4FF6F
:1026100000200649C8800A200749087000200349A5
:10262000487200E010BD00BFFCE7000094000020ED
:1026300036000020003801401600002008B50121B6
:10264000082000F04BFD4FF48070ADF800004820EA
:102650008DF8030001208DF8020069468D4800F0D6
:1026600087FA0121042000F039FD4FF40060ADF835
:10267000000048208DF8030001208DF80200694613
:10268000854800F075FA0121042000F027FD4FF481
:102690008050ADF8000010208DF8030001208DF867
:1026A000020069467C4800F063FA4FF480517A4892
:1026B00000F009FB08BD10B578480078012861D109
:1026C0007748007A80B97748407A01280CD174485D
:1026D000C0885038724908800846C0888880012028
:1026E0000872C872002088736D48007A01281CD1D6
:1026F0006B480088C8B96A48007B6B4908700020A5
:10270000674908736848007888736748007801282B
:1027100001D1887202E0002061498872002062497C
:1027200008705F4908725F4948725D4880880028D8
:1027300032D15B48807A01280DD10103564800F060
:10274000C4FA0120564948735848407A00F0FD0009
:10275000564948720DE04FF480514F4800F0B3FAEB
:1027600002204F4948735148407A00F0FE004F491B
:10277000487200204A4948720846C0888880002074
:10278000C87209E000204649087246494872444927
:10279000888048728880C87210BD10B54048008893
:1027A000002804DD3E480088401E3D4908803C4822
:1027B000C07A012808D13A488088002804DD3848CA
:1027C0008088401E364988803548407B01282DD1BD
:1027D00037480088401C36490880084600880A2887
:1027E0000FDB4FF480712B4800F053FA28B900201A
:1027F0002B4948732E49088003E02D4800882C4956
:1028000008802B480088A02810DB4FF480712148F5
:1028100000F03FFA28B90020214948732449088074
:1028200004E000201E494873214908801C48407B71
:1028300002282DD11F480088401C1E4908800846E8
:1028400000880A280FDB4FF40061134800F021FADA
:1028500028B90020124948731649088003E015483A
:1028600000881449088013480088A02810DB4FF422
:102870000061094800F00DFA28B9002008494873A2
:102880000C49088004E00020054948730949088084
:1028900010BD0000000C0140000801402400002091
:1028A000E20C0020880000203E000020D40C002014
:1028B000420000204000002031490143314A1160AC
:1028C000704770B5002100230F22C4780CB32D4C43
:1028D000246804F4E064C4F5E064210AC1F104034F
:1028E000CA40447804FA03F1847814402143090172
:1028F000254C0678A155047804F01F050124AC404E
:1029000005786D114FF0E02606EB8505C5F800410E
:1029100009E0047804F01F050124AC401B4D067843
:10292000761145F8264070BD194A0A400243154BFE
:102930001B1F1A60704739B1124A121D12680243F8
:10294000104B1B1D1A6006E00E4A121D12688243CE
:102950000C4B1B1D1A607047042808D14FF0E02172
:10296000096941F004014FF0E022116107E04FF0E6
:10297000E021096921F004014FF0E0221161704764
:102980000000FA050CED00E000E400E080E100E06A
:1029900080FFFF1F002044490860091D0860091DD1
:1029A0000860091D086041483F49143108607047BC
:1029B00000213D498279002A3AD00A46126803680C
:1029C0009A430B461A600A1D126803689A430B1D4E
:1029D0001A60027911440A6803681A430A60324A8D
:1029E0000832126803689A432F4B08331A601A1D85
:1029F000126803689A432C4B0C331A604279102AF0
:102A00000ED11A1F126803681A43274B08331A6045
:102A10001A1D126803681A43234B0C331A600DE029
:102A20002149427911440A6803681A430A6005E0A3
:102A3000027911440A6803689A430A6070470021CA
:102A4000016001710C2141710021817170471649AB
:102A5000103109680143144A103211607047014671
:102A60000020114A143212680A4201D0012000E00D
:102A7000002070470C49143108607047014600205F
:102A80000022094B1B6803EA0102074B14331B6841
:102A90000B4202D00AB1012000E000207047024939
:102AA000143108607047000000040140FFFF0F0070
:102AB00010B50446CA48844208D10121042000F020
:102AC00027FB0021042000F023FB46E0C548844298
:102AD00008D10121082000F01BFB0021082000F094
:102AE00017FB3AE0C048844208D10121102000F0D1
:102AF0000FFB0021102000F00BFB2EE0BB488442AE
:102B000008D10121202000F003FB0021202000F04B
:102B1000FFFA22E0B648844208D10121402000F0AB
:102B2000F7FA0021402000F0F3FA16E0B1488442A1
:102B300008D10121802000F0EBFA0021802000F074
:102B4000E7FA0AE0AC48844207D10121801500F081
:102B5000DFFA0021A01500F0DBFA10BD10B501214D
:102B6000084600F0D5FA0021012000F0D1FA10BD8E
:102B70002DE9F04102460025002600200023002414
:102B8000002791F803C00CF00F0591F803C01CF06A
:102B9000100F03D091F802C04CEA050591F800C06F
:102BA000BCF1000F31D0146800202BE04FF0010C75
:102BB0000CFA00F3B1F800C00CEA03069E4220D1E3
:102BC00083004FF00F0C0CFA03F7BC4305FA03FC2B
:102BD0004CEA040491F803C0BCF1280F06D14FF071
:102BE000010C0CFA00FCC2F814C00AE091F803C012
:102BF000BCF1480F05D14FF0010C0CFA00FCC2F8F3
:102C000010C0401C0828D1D31460B1F800C0BCF13A
:102C1000FF0F34DD546800202EE000F1080C4FF067
:102C2000010808FA0CF3B1F800C00CEA03069E4252
:102C300021D183004FF00F0C0CFA03F7BC4305FAC7
:102C400003FC4CEA040491F803C0BCF1280F05D141
:102C500000F1080C08FA0CF8C2F8148091F803C0CF
:102C6000BCF1480F07D100F1080C4FF0010808FA39
:102C70000CF8C2F81080401C0828CED35460BDE880
:102C8000F0814FF6FF710180022181700421C17033
:102C900070470246002093680B4201D0012000E0FB
:102CA000002070470146886880B2704702460020C5
:102CB000D3680B4201D0012000E00020704701469C
:102CC000C86880B2704701617047416170470AB1BE
:102CD000016100E041617047C16070474FF480328C
:102CE0000A4382618161826182698269704702461A
:102CF0000020424B18684FF68073184040EA0210DB
:102D000008433E4B186070473D49C8617047F0B5B5
:102D10000A46002300240021002500F00046B6F1F9
:102D2000004F02D1354EF16901E0344E7168C0F3B5
:102D3000034583B200F44016B6F5401F08D121F0D8
:102D400070612E4E766826F070662C4F7E6012E021
:102D500000F48016B6F5801F06D1032606FA05F4A6
:102D6000A14341F0706106E0460D360103FA06F614
:102D7000B14341F0706122B1460D360103FA06F607
:102D8000314300F00046B6F1004F02D11B4EF16115
:102D900001E01A4E7160F0BD30B500228B071C0FA8
:102DA0000F2303FA04F2154B08338C1053F8243028
:102DB0009343124C08348D1044F8253023468C1070
:102DC00053F824308C07240F00FA04F423430B4CEF
:102DD00008348D1044F8253030BD0A49086070472A
:102DE00000080140000C01400010014000140140A7
:102DF00000180140001C014000200140000001407B
:102E000000002042DC002042DD48006840F0010064
:102E1000DB49086008464068DA490840D8494860FC
:102E200008460068D8490840D54908600846006847
:102E300020F4802008600846406820F4FE004860C6
:102E40004FF41F0088607047CD49096821F4803134
:102E5000CB4A11601146096821F480211160B0F558
:102E6000803F03D0B0F5802F0ED106E0C449096839
:102E700041F48031C24A116007E0C149096841F458
:102E8000A021BF4A116000E000BF00BF704710B52D
:102E900001460022002300204A11012A02D1B84C29
:102EA000236806E0022A02D1B54C236A01E0B44C43
:102EB000636A01F01F02012494401C4201D00120EA
:102EC00000E0002010BD38B500200090002400254F
:102ED00000BF3120FFF7DBFF05460098401C009043
:102EE0000098B0F5A06F01D0002DF2D03120FFF78F
:102EF000CEFF08B1012400E00024204638BD014681
:102F000000209F4A106820F0F80040EAC1001060DD
:102F100070479E490860704702460020984B5868E9
:102F200020F47C1042EA01031843954B5860704727
:102F300096490866704701460020914A506820F083
:102F400003000843506070478D48406800F00C0053
:102F50007047014600208A4A506820F0F00008437C
:102F60005060704701460020854A506820F4E060B8
:102F700008435060704701460020814A506820F4A1
:102F8000605040EAC1005060704729B17C4A527AD3
:102F900002437B4B5A7204E0794A527A8243784B5F
:102FA0005A7270477A490860704701460020744A97
:102FB000506820F440400843506070470021754A33
:102FC00011706F4A82F82010012802D0042808D11D
:102FD00003E001216F4A117004E005216D4A117070
:102FE00000E000BF00BF70476B490860704764494C
:102FF000096A0143624A11627047674944390860AF
:10300000704730B500210022002400235C4D6D681C
:1030100005F00C0121B1042905D0082923D105E0D0
:103020005E4D056022E05D4D05601FE0544D6D680A
:1030300005F47012524D6D6805F48034022505EBDD
:1030400092421CB9564D554305600BE04C4D6D68DE
:1030500015F4003F03D0524D5543056002E04F4D3B
:103060005543056002E04D4D056000BF00BF444D73
:103070006D6805F0F00109094A4D6B5C0568DD409B
:1030800045603F4D6D6805F4E061090A454D6B5C94
:103090004568DD4085603A4D6D6805F46051C90AA8
:1030A000404D6B5C4568DD40C560354D6D6805F48D
:1030B0004041890B3C4D6B5CC568B5FBF3F5056180
:1030C00030BD29B12E4A526902432D4B5A6104E0AA
:1030D0002B4A526982432A4B5A61704729B1284AC8
:1030E00092690243264B9A6104E0254A9269824321
:1030F000234B9A61704729B1214AD2690243204B80
:10310000DA6104E01E4AD26982431D4BDA617047DE
:1031100029B11B4AD2680243194BDA6004E0184A0D
:10312000D2688243164BDA60704729B1144A12699B
:103130000243134B1A6104E0114A12698243104B97
:103140001A61704714494039086070470F49C864D4
:1031500070470B49C87170470948406A40F0807059
:1031600007494862704701460020054A92680A42B2
:1031700001D0012000E000207047014988727047AB
:10318000001002400000FFF8FFFFF6FE0000424280
:10319000D8004242201002408004424200127A00CD
:1031A00000093D00440000205400002010B50446F2
:1031B000FE48844208D10121C014FFF7A9FF002175
:1031C000E014FFF7A5FFC4E0B4F1804F08D101215E
:1031D0000846FFF7AAFF00210120FFF7A6FFB8E08D
:1031E000F348844208D101210220FFF79EFF00210D
:1031F0000220FFF79AFFACE0EE48844208D101219B
:103200000420FFF792FF00210420FFF78EFFA0E0CB
:10321000E948844208D101210820FFF786FF0021F8
:103220000820FFF782FF94E0E448844208D101219E
:103230001020FFF77AFF00211020FFF776FF88E0CB
:10324000DF48844208D101212020FFF76EFF0021D2
:103250002020FFF76AFF7CE0DA48844208D1012190
:103260004014FFF755FF00216014FFF751FF70E095
:10327000D548844209D10121C804FFF749FF002144
:103280004FF40020FFF744FF63E0D048844209D1A7
:1032900001210805FFF73CFF00214FF48010FFF7E4
:1032A00037FF56E0CA48844209D101214805FFF79B
:1032B0002FFF00214FF40010FFF72AFF49E0C54817
:1032C000844208D101214020FFF72FFF0021402038
:1032D000FFF72BFF3DE0C048844208D10121802048
:1032E000FFF723FF00218020FFF71FFF31E0BB48DD
:1032F000844208D101218015FFF717FF0021A01596
:10330000FFF713FF25E0B648844209D101210804E4
:10331000FFF7FEFE00214FF48030FFF7F9FE18E0C2
:10332000B048844209D101214804FFF7F1FE002191
:103330004FF40030FFF7ECFE0BE0AB48844208D1BD
:1033400001218804FFF7E4FE00214FF48020FFF7FD
:10335000DFFE10BD00220288944B98420ED0994B9C
:1033600098420BD0B0F1804F08D0914B984205D0D5
:10337000904B984202D0904B984204D14FF68F73F5
:103380001A404B881A438D4B984207D08C4B984279
:1033900004D04FF6FF431A40CB881A4302808B8833
:1033A00083850B880385814B98420BD0854B9842CF
:1033B00008D08B4B984205D08A4B984202D08A4B5A
:1033C000984201D10B7A038601238382704770B53E
:1033D000002400220023058C4FF6FE76354005843C
:1033E000028C8388048B4FF68F752C40B51E2C40C1
:1033F0000D882C43751E2A400D892A434D882A4387
:103400006A4DA8420BD06F4DA84208D0744DA84217
:1034100005D0744DA84202D0734DA84213D14FF687
:10342000F7752A404D892A434FF6FB752A408D884F
:103430002A434FF6FF652B404FF6FF552B408D89F1
:103440002B43CD892B4383800483CD8885860284DA
:1034500070BD70B5002400220023058C4FF6EF7676
:1034600035400584028C8388048B48F6FF752C4018
:103470004FF6FF452C400D884FF6FF7606EA0525EE
:103480002C434FF6DF752A400D8906EA05152A43BD
:103490004D8806EA05152A43444DA84202D0494DFD
:1034A000A8421DD14FF67F752A404D894FF6FF7611
:1034B00006EA05152A434FF6BF752A408D8806EAAD
:1034C00005152A434FF6FF352B404FF2FF752B4071
:1034D0008D8906EA85052B43CD8906EA85052B43B0
:1034E00083800483CD880587028470BD70B5002475
:1034F00000220023058C4FF6FF6635400584028CC0
:103500008388848B4FF68F752C404FF6FC752C40CA
:103510000D882C434FF6FF552A400D894FF6FF7654
:1035200006EA05252A434D8806EA05252A431F4D4C
:10353000A84202D0234DA8421DD14FF2FF752A4068
:103540004D894FF6FF7606EA05252A434FF6FF35EB
:103550002A408D8806EA05252A434EF6FF752B4042
:103560004DF6FF752B408D8906EA05152B43CD8955
:1035700006EA05152B4383808483CD8885870284E2
:1035800070BD70B5002200230024058C4EF6FF7636
:1035900035400584038C8488828B48F6FF752A4069
:1035A0004FF6FF452A400D8820E00000002C014026
:1035B0000004004000080040000C004000100040E3
:1035C0000014004000340140004C01400050014014
:1035D0000054014000180040001C00400020004042
:1035E0000040014000440140004801404FF6FF7692
:1035F00006EA05252A434DF6FF752B400D8906EA9C
:1036000005352B434D8806EA05352B43FA4DA84274
:1036100002D0FA4DA84208D14BF6FF752C408D8997
:103620004FF6FF7606EA85152C4384808283CD8889
:10363000A0F84050038470BD828B4FF2FF331A40D4
:103640008283828B4FF6FF7303EA01231A4382833E
:103650007047F0B50C461546002200210026078C65
:103660004EF6FF7C07EA0C070784828B018C4FF62D
:10367000FF7707EA043640F6FF473A404FF6FF77F8
:1036800007EA05273A434FF6FF7707EA03373A433D
:10369000D94FB8420ED0D94FB8420BD0B0F1804FBD
:1036A00008D0D74FB84205D0D64FB84202D0D64F37
:1036B000B84206D14DF6FF77394046F4805739437A
:1036C00005E047F6FF57394044F480573943828379
:1036D0000184F0BD828B4FF6F3731A408283828B94
:1036E0000A4382837047F0B50C461546002200213C
:1036F0000026078C4FF6FF6C07EA0C070784828BC5
:10370000018C4FF6FF7707EA04264FF60C773A4014
:103710004FF6FF7707EA03172F433A43B64FB842F5
:103720000ED0B64FB8420BD0B0F1804F08D0B44F96
:10373000B84205D0B34FB84202D0B34FB84206D119
:103740004FF6FF57394046F48077394305E04FF292
:10375000FF57394044F48077394382830184F0BDB8
:10376000028B4FF2FF331A400283028B4FF6FF7336
:1037700003EA01231A4302837047F0B50C4615464D
:10378000002200210026078C4FF6EF7C07EA0C0789
:103790000784028B018C4FF6FF7707EA041640F688
:1037A000FF473A404FF6FF7707EA03373A434FF6B1
:1037B000FF7707EA05273A438F4FB8420ED08F4F65
:1037C000B8420BD0B0F1804F08D08D4FB84205D031
:1037D0008C4FB84202D08C4FB84206D14FF6DF77FB
:1037E000394046F01007394305E04FF65F7739401E
:1037F00044F01007394302830184F0BD028B4FF679
:10380000F3731A400283028B0A4302837047F0B5B8
:103810000C46154600220021068C4FF6FE773E40EE
:103820000684028B018C4FF60C7632407E1C06EA31
:1038300003162E433243704EB0420ED06F4EB0424C
:103840000BD0B0F1804F08D06D4EB04205D06D4E18
:10385000B04202D06C4EB04206D14FF6FD763140F8
:1038600044F00106314305E04FF6F576314044F06F
:103870000106314302830184F0BD70B505460C4654
:103880005D4885420ED05D4885420BD0B5F1804F32
:1038900008D05B48854205D05A48854202D05A4834
:1038A000854200D100E000BF208850B92389A2885A
:1038B00061882846FFF7ABFFE1882846FFF79EFFA7
:1038C00025E0208804280AD12389A2886188284617
:1038D000FFF753FFE1882846FFF742FF17E02088F3
:1038E00008280AD12389A28861882846FFF7FBFEB1
:1038F000E1882846FFF7EEFE09E02389A288618867
:103900002846FFF7A6FEE1882846FFF795FE70BD22
:103910002DE9F04105460C4600260127608808B9CC
:10392000022600E00026A088012801D1022700E03D
:1039300001272088A0B92389A28861882846FFF73B
:1039400066FFE1882846FFF759FF23893A4631464A
:103950002846FFF712FFE1882846FFF701FF13E032
:103960002389A28861882846FFF707FFE188284657
:10397000FFF7F6FE23893A4631462846FFF747FF10
:10398000E1882846FFF73AFFBDE8F0810A884B88B6
:103990001A438B881A43CB881A430B891A434B89E5
:1039A0001A438B891A43A0F8442070474FF6FF71E1
:1039B000818000210180C180418001727047002117
:1039C000018041808180C180018141818181C181EB
:1039D0007047002101804180012181800021C18048
:1039E000018170470021018041808180C180018177
:1039F0004181818170470000002C0140003401406A
:103A00000004004000080040000C004021B1028882
:103A100042F00102028004E002884FF6FE731A4071
:103A20000280704731B1B0F8442042F40042A0F85F
:103A3000442005E0B0F84420C2F30E02A0F8442070
:103A400070471AB183890B43838102E083898B43DA
:103A5000838170478182704741EA0203A0F84830B1
:103A600070471AB183890B43838102E083898B43BA
:103A70008381704701894FF6F872114001817047C8
:103A80000A46002101894FF68F73194011430181C5
:103A9000704730B504460D4629462046FFF7F0FF33
:103AA000208940F00700208130BD2DE9F041044617
:103AB0000D4616461F46602D06D13B460122314673
:103AC0002046FFF75AFE05E03B46012231462046DC
:103AD000FFF79DFE29462046FFF7D2FF208940F0E0
:103AE00007002081BDE8F08130B50C460021018936
:103AF000C9B24FF6FF7505EA03251543254329434F
:103B0000018130BD2DE9F04105460E461746984625
:103B1000002443463A4631462846FFF7E5FF2C8904
:103B20004FF6F870044044F007044FF68F700440DD
:103B300044F070042C81BDE8F081F0B504460D46D8
:103B400016461F463B46324629462046FFF7CCFF25
:103B5000208940F480402081F0BD01858282704739
:103B60000A46002101884FF68F73194011430180E6
:103B70007047F0B50C4615461E4600210022002372
:103B80000189028B038C4FF6F877394021434FF6B9
:103B9000FC473A4040F201173A434FF6DD773B408D
:103BA0004FF6FF7707EA06172F433B430181028355
:103BB0000384F0BD0A460021018B4FF68F73194034
:103BC0001143018370470A460021018B48F6FF73B9
:103BD00019404FF6FF7303EA02231943018370472C
:103BE0000A460021818B4FF68F7319401143818360
:103BF00070470A460021818B48F6FF7319404FF643
:103C0000FF7303EA022319438183704721B10288BD
:103C100042F08002028004E002884FF67F731A406F
:103C20000280704721B1828842F00402828004E061
:103C300082884FF6FB731A408280704721B18288D8
:103C400042F00802828004E082884FF6F7731A403F
:103C50008280704721B1828842F00102828004E0B4
:103C600082884FF6FE731A40828070470A46002110
:103C7000018B4FF6F77319401143018370470A46D1
:103C80000021018B4FF2FF7319404FF6FF7303EAD7
:103C900002231943018370470A460021818B4FF6A6
:103CA000F77319401143818370470A460021818BC5
:103CB0004FF2FF7319404FF6FF7303EA02231943D3
:103CC000818370470A460021018B4FF6FB73194030
:103CD0001143018370470A460021018B4FF6FF33E1
:103CE00019404FF6FF7303EA02231943018370471B
:103CF0000A460021818B4FF6FB73194011438183E3
:103D000070470A460021818B4FF6FF3319404FF66A
:103D1000FF7303EA02231943818370470A46002197
:103D2000018B4FF67F7319401143018370470A4698
:103D30000021018BC1F30E014FF6FF7303EA02234A
:103D40001943018370470A460021818B4FF67F7328
:103D500019401143818370470A460021818BC1F3CA
:103D60000E014FF6FF7303EA022319438183704764
:103D70000A460021018C4FF6FD731940114301845E
:103D800070470A460021018C4FF6F7731940114322
:103D9000018470470A460021018C4FF6DF731940F9
:103DA0004FF6FF7303EA02131943018470470A4672
:103DB0000021018C4FF67F7319404FF6FF7303EA21
:103DC00002131943018470470A460021018C4FF603
:103DD000FF5319404FF6FF7303EA0223194301848E
:103DE00070470A460021018C4FF2FF7319404FF6CD
:103DF000FF7303EA02231943018470470A46002136
:103E0000018C4DF6FF7319404FF6FF7303EA02333E
:103E100019430184704730B5002301248C40A3B2BC
:103E2000048C9C430484048C02FA01F5ADB22C434B
:103E3000048430BD30B5002304248C40A3B2048C2C
:103E40009C430484048C02FA01F5ADB22C43048433
:103E500030BD70B5034600200024184618300125F7
:103E60008D40ACB21D8CA5431D8409B1082909D130
:103E700000EB6100056825F07005056005681543D5
:103E800005600EE00D1FC5F34E052844056825F4B6
:103E9000E045056005684FF6FF7606EA02263543E1
:103EA000056070BD21B1028842F00202028004E088
:103EB00002884FF6FD731A400280704721B10288D4
:103EC00042F00402028004E002884FF6FB731A40BD
:103ED0000280704721B1828842F08002828004E033
:103EE00082884FF67F731A408280704702884FF6AF
:103EF000F7731A40028002880A4302807047828862
:103F00004FF68F731A40828082880A4382807047FE
:103F100002894FF6F8731A40028102890A4302812E
:103F2000704702894FF67F731A40028102890A4363
:103F30000281704781847047818570478186704710
:103F40000187704781877047A0F84010704702884A
:103F50004FF6FF431A40028002880A4302807047EE
:103F60000146888E70470146088F70470146888F4A
:103F700070470146B1F8400070470146888C704791
:103F80000146088D704702460020138A0B4201D07B
:103F9000012000E000207047CA430282704730B51C
:103FA0000246002000230024158A05EA01039589B2
:103FB00005EA010413B10CB1012000E0002030BD7E
:103FC000CA4302827047000010B50446FB48844291
:103FD00009D101218803FFF79BF800214FF48040AD
:103FE000FFF796F832E0F648844209D101214804EF
:103FF000FFF79BF800214FF40030FFF796F825E01B
:10400000F048844209D101218804FFF78EF800218D
:104010004FF48020FFF789F818E0EB48844209D17B
:104020000121C804FFF781F800214FF40020FFF7B9
:104030007CF80BE0E548844208D101210805FFF730
:1040400074F800214FF48010FFF76FF810BD2DE9D0
:10405000F04786B005460E460024A24600BFA146A2
:104060000027B08900B100BF2F462C8A4CF6FF70A4
:104070000440F08804432C82AC894EF6F3100440CF
:10408000B08831890843718908430443AC81AC8A04
:104090004FF6FF400440B0890443AC8201A8FEF70C
:1040A000B0FFC648874202D1DDF810A001E0DDF87C
:1040B0000CA0A88910F4004F08D00AEBCA0000EB4E
:1040C0000A1031684900B0FBF1F807E00AEBCA00BA
:1040D00000EB0A1031688900B0FBF1F86420B8FBEE
:1040E000F0F004012009642101FB1089A88910F473
:1040F000004F08D0322000EBC900B0FBF1F000F017
:104100000700044308E0322000EB09106421B0FBF3
:10411000F1F000F00F0004432C8106B0BDE8F087F9
:104120004FF41651016000218180C18001810C2172
:10413000418100218181704710B502460020108A1C
:104140004FF2FF0318400B884C8823438C8823438D
:10415000CC8823431843108210BD00210180418088
:104160008180C180704721B1828942F400528281EE
:1041700004E082894DF6FF731A4082817047F0B5E2
:1041800003460024002600250020A1F510676A3FA1
:1041900000D100BF1846C1F3421401F01F060127E9
:1041A00007FA06F5012C01D10C3004E0022C01D1F4
:1041B000103000E014301AB107682F43076002E0A6
:1041C0000768AF430760F0BD1AB1838A0B4383824F
:1041D00002E0838A8B4383827047028A4FF6F07332
:1041E0001A400282028A0A430282704782894FF291
:1041F000FF731A40828182890A438281704721B10C
:10420000828942F00202828104E082894FF6FD73C6
:104210001A4082817047028A4FF6DF731A40028289
:10422000028A0A430282704721B1028A42F4804224
:10423000028204E0028A4BF6FF731A400282704742
:10424000C1F308028280704701468888C0F30800E5
:104250007047818941F0010181817047028BD2B2A0
:104260000283028B42EA012202837047028B02F42E
:104270007F420283028B0A430283704721B1828A04
:1042800042F02002828204E0828A4FF6DF731A40F5
:104290008282704721B1828A42F01002828204E059
:1042A000828A4FF6EF731A408282704721B1828A68
:1042B00042F00802828204E0828A4FF6F7731A40C5
:1042C0008282704721B1828942F40042828103E0F8
:1042D0008289C2F30E028281704721B1828A42F440
:1042E0000062828204E0828A4FF2FF731A40828267
:1042F0007047828A4FF6FB731A408282828A0A4391
:104300008282704721B1828A42F00202828204E0F6
:10431000828A4FF6FD731A4082827047024600205F
:10432000B1F5007F00D100BF13880B4201D00120FE
:1043300000E00020704701F40072B2F5007F00D168
:1043400000BFCA430280704770B5024600240023B4
:1043500000250020A1F510666A3E00D100BFC1F320
:10436000421501F01F03012606FA03F3012D02D1C5
:104370009689334006E0022D02D1168A334001E0CF
:10438000968A33400C12012606FA04F4168834404B
:1043900013B10CB1012000E0002070BD10B5002267
:1043A0000023A1F510646A3C00D100BF0A12012469
:1043B0009440A3B2DC43048010BD000000380140EB
:1043C0000044004000480040004C004000500040C5
:1043D0000CB50020019000906B48006840F48030DC
:1043E0006949086000BF6848006800F40030009028
:1043F0000198401C0190009818B90198B0F5A06F81
:10440000F1D16148006810F4003F02D00120009013
:1044100001E0002000900098012842D15B4800682C
:1044200040F01000594908600846006820F0030079
:1044300008600846006840F0020008605248406882
:10444000514948600846406848600846406840F462
:10445000806048600846406820F47C104860084648
:10446000406840F4E81048600846006840F08070FA
:10447000086000BF4448006810F0007FFAD042484E
:10448000406820F00300404948600846406840F01A
:104490000200486000BF3C48406800F00C0008285B
:1044A000F9D10CBD10B5FFF793FF10BD10B536481C
:1044B000006840F00100344908600846406834490B
:1044C00008403149486008460068324908402E4992
:1044D00008600846006820F48020086008464068AC
:1044E00020F4FE0048604FF41F008860FFF7DAFFF9
:1044F0004FF000602849086010BD10B50021002071
:104500000022214B5B6803F00C0121B1042906D085
:10451000082928D107E0214B214C236027E01F4BBD
:104520001F4C236023E0184B5B6803F47010164B9C
:104530005B6803F48032022303EB904022B9194BED
:104540004343174C23600DE00F4B5B6813F4003FAF
:1045500004D0144B4343124C236003E00F4B4343FE
:104560000F4C236003E00D4B0D4C236000BF00BFD8
:10457000054B5B68C3F303130B4CE15C084B1B68F2
:10458000CB40074C236010BD0010024000200240C9
:104590000000FFF8FFFFF6FE08ED00E000127A00D1
:1045A0005800002000093D005C00002006488047BC
:1045B00006480047FEE7FEE7FEE7FEE7FEE7FEE708
:1045C000FEE7FEE7FEE7FEE7AD4400083101000824
:1045D000064C074D06E0E06840F0010394E8070050
:1045E00098471034AC42F6D3FBF7A6FD14480008F8
:1045F0003448000802E008C8121F08C1002AFAD196
:1046000070477047002001E001C1121F002AFBD152
:1046100070470000C1C081C1400101C3C0038002D6
:1046200041C201C6C006800741C70005C1C581C49B
:10463000400401CCC00C800D41CD000FC1CF81CE14
:10464000400E000AC1CA81CB400B01C9C0098008D5
:1046500041C801D8C018801941D9001BC1DB81DADB
:10466000401A001EC1DE81DF401F01DDC01D801C1D
:1046700041DC0014C1D481D5401501D7C017801684
:1046800041D601D2C012801341D30011C1D181D0D3
:10469000401001F0C030803141F10033C1F381F2AC
:1046A00040320036C1F681F7403701F5C03580341D
:1046B00041F4003CC1FC81FD403D01FFC03F803E14
:1046C00041FE01FAC03A803B41FB0039C1F981F853
:1046D00040380028C1E881E9402901EBC02B802A3D
:1046E00041EA01EEC02E802F41EF002DC1ED81EC9B
:1046F000402C01E4C024802541E50027C1E781E684
:1047000040260022C1E281E3402301E1C021802054
:1047100041E001A0C060806141A10063C1A381A20A
:1047200040620066C1A681A7406701A5C06580649C
:1047300041A4006CC1AC81AD406D01AFC06F806E13
:1047400041AE01AAC06A806B41AB0069C1A981A8D2
:1047500040680078C1B881B9407901BBC07B807ADC
:1047600041BA01BEC07E807F41BF007DC1BD81BC1A
:10477000407C01B4C074807541B50077C1B781B683
:1047800040760072C1B281B3407301B1C0718070D4
:1047900041B00050C190819140510193C05380526B
:1047A00041920196C056805741970055C19581941A
:1047B0004054019CC05C805D419D005FC19F819E13
:1047C000405E005AC19A819B405B0199C059805854
:1047D00041980188C04880494189004BC18B818A3A
:1047E000404A004EC18E818F404F018DC04D804C9C
:1047F000418C0044C184818540450187C047804683
:1048000041860182C042804341830041C181818051
:104810004040000034480008000000206C00000008
:10482000F4450008A04800086C0000208C1000002F
:1048300004460008000000000000000032013201C0
:104840000000000000000000000000000000000068
:104850000000000000000000020000000000000056
:1048600064000000000000000000000000000000E4
:10487000000000000000000000000000010203042E
:1048800001020304060708090204060800A24A04FC
:1048900000000000000000000102030406070809F0
:0400000508000131BD
:00000001FF
